:020000040800F2
:10000000280A0020D5010008631B00086D190008AC
:10001000611B0008D9040008B91E00080000000098
:10002000000000000000000000000000671B000846
:10003000F504000800000000651B0008691B0008AB
:10004000EF010008EF010008EF010008EF010008D0
:10005000EF010008EF010008EF010008EF010008C0
:10006000EF010008EF010008EF010008EF010008B0
:10007000DD040008E9040008EF010008EF010008B2
:10008000EF010008EF010008EF010008EF01000890
:10009000EF010008EF010008EF010008EF01000880
:1000A000EF010008EF010008EF010008EF01000870
:1000B000EF010008EF010008EF010008EF01000860
:1000C000EF010008EF010008EF010008EF01000850
:1000D000EF010008951E0008A11E0008AD1E0008D3
:1000E000EF010008EF010008EF010008EF01000830
:1000F000EF010008EF010008EF010008EF01000820
:10010000EF010008EF010008EF010008EF0100080F
:10011000EF010008EF010008EF010008EF010008FF
:10012000EF010008EF010008EF010008EF010008EF
:1001300000F002F800F03FF80AA090E8000C8244BA
:100140008344AAF10107DA4501D100F034F8AFF297
:10015000090EBAE80F0013F0010F18BFFB1A43F0A5
:1001600001031847DC210000FC210000103A24BFE5
:1001700078C878C1FAD8520724BF30C830C144BF0C
:1001800004680C607047000000230024002500264E
:10019000103A28BF78C1FBD8520728BF30C148BFEA
:1001A0000B607047642900F07780002070471FB50E
:1001B0001FBD10B510BD00F05DF91146FFF7F7FF48
:1001C00001F098FE00F07BF903B4FFF7F2FF03BCE7
:1001D00001F083FE0948804709480047FEE7FEE733
:1001E000FEE7FEE7FEE7FEE7FEE7FEE7FEE7FEE7E7
:1001F00004480549054A064B70470000CB1B000820
:100200003101000828040020280A002028060020C8
:1002100028060020704700000FB4044910B503AA57
:10022000029800F0F9F810BC5DF814FB0000002003
:100230002DE9F0410E460446002020622046E16888
:10024000884730B3252805D0D4E901219047206A9A
:10025000401CF2E7E168204600278847050018D0D7
:10026000A5F14100192802D820354FF40067324625
:10027000294620462760FFF795FF40B1012804D0AA
:10028000F61D26F007060836D8E7361DD6E72846BD
:10029000DAE7206ABDE8F0812DE9F0410646002446
:1002A00010687529314616A510D0AFF300800028DC
:1002B00002DA404213A507E031688A0701D512A58A
:1002C00002E0490704D511A5012401E0AFF3008045
:1002D00000210A2206F1240709E0B0FBF2FCB0FB82
:1002E000F2F302FB1C00303078541846491C0028F9
:1002F000F3D123462A463046BDE8F04100F033B83A
:10030000000000002D0000002B0000002000000075
:100310004FF0000200B5134694469646203922BF9E
:10032000A0E80C50A0E80C50B1F12001BFF4F7AFE9
:10033000090728BFA0E80C5048BF0CC05DF804EBCB
:10034000890028BF40F8042B08BF704748BF20F839
:10035000022B11F0804F18BF00F8012B7047704737
:100360007047704770472DE9F0470D469946924611
:10037000044600F124080168880604D5E06921F0EC
:100380001001216000E00120A84201DD471B00E0D0
:100390000027A1697A1902EB0900081AA0612078E8
:1003A000C00602D42046AFF30080002608E0D4E95E
:1003B00001211AF806009047206A401C761C206232
:1003C0004E45F4DB2078C0060AD52046AFF3008006
:1003D00006E0D4E9012130209047206A401C2062C9
:1003E000381EA7F10107F4DC07E0D4E9012118F871
:1003F00005009047206A401C2062281EA5F10105D7
:10040000F3DC2046AFF300802078000602D50220FE
:10041000BDE8F0870120FBE7074B70B50D467B4434
:1004200000F011F80446284600F020F810B14FF013
:10043000FF3070BD204670BDBB1A000001694A1C28
:1004400002610878704700B58FB0CDE90131002115
:10045000059105497944CDE9031011466846FFF737
:10046000E7FE0FB000BD0000E5FFFFFF007B00F0DE
:1004700080007047754600F02BF8AE4605006946CF
:10048000534620F00700854618B020B5FFF7B0FEB0
:10049000BDE820404FF000064FF000074FF0000885
:1004A0004FF0000B21F00701AC46ACE8C009ACE806
:1004B000C009ACE8C009ACE8C0098D46704710B56A
:1004C0000446AFF300802046BDE81040FFF77CBE35
:1004D00000487047C8030020FEE70000014800F014
:1004E000C7B8000084010020014800F0C1B8000036
:1004F00040010020704772B6FEE710B590F8211059
:100500000022022905D00421816380F820200120E7
:1005100010BD01680B6823F00E030B6001680B68C7
:1005200023F001030B6090F84030C46B012101FA05
:1005300003F3636080F8211080F82020104610BD7E
:100540002DE9F05F90F821100024022903D0042146
:100550008163012485E001680A6822F00E020A60C6
:1005600001680A6822F001020A603F4E3E4FB21550
:10057000DFF8F4C0DFF8F090DFF8ECA0DFF8E8B0C7
:10058000DFF8E4E00168783F13011502ACF1640C78
:10059000A9F15009AAF13C0AABF1280BAEF1140EF7
:1005A0004FF48018B14227D9B9420ED0614512D01C
:1005B00049451DD0514518D0594518D0714501D134
:1005C000424615E0294EB14201D1012210E0274EEA
:1005D0001436B14201D110220AE0244E2836B1422D
:1005E00006D0224A3C32914201D11A4600E02A4606
:1005F0001E49091F0A602BE0B94213D0614517D08C
:10060000494522D051451DD059451DD0714501D1D4
:1006100042461AE0B14202D14FF0807215E0134E0B
:10062000B14201D1012210E0104E1436B14201D185
:1006300010220AE00D4E2836B14206D00B4A3C3259
:10064000914201D11A4600E02A46074980394A60A2
:10065000012180F82110002180F82010416B01B1A8
:1006600088472046BDE8F09F800002400804024011
:100670002DE9F05FC16B0A6801680B68046C4FF0EC
:10068000040808FA04F8844D844E854FDFF814C23C
:10069000DFF81492DFF814A2DFF814B2DFF814E2E6
:1006A00018EA020F65D05FEA437862D50A689206BD
:1006B00003D40A6822F004020A60DFF8F0814FF4E4
:1006C0008062016808F1140813011402414524D91D
:1006D000A9420DD0B1420FD0B9421AD0614515D010
:1006E000494515D0514501D1120312E0594501D1B8
:1006F00004220EE0714501D140220AE06D4D14350F
:10070000A94206D06B4A2832914201D11A4600E034
:1007100022466749091F0A6029E0A94213D0B14265
:1007200015D0B94220D061451BD049451BD0514559
:1007300002D14FF4800217E0414502D14FF08062B0
:1007400012E0594501D104220EE0714501D1402249
:100750000AE0584D1435A94206D0564A2832914233
:1007600001D11A4600E022464B4908394A60C16A65
:1007700071E04FF0020808FA04F818EA020F70D08E
:100780005FEA83786DD50A68920606D40A6822F07B
:100790000A020A60012180F82110DFF810814FF46D
:1007A0000072016808F1140813011402414524D9AC
:1007B000A9420DD0B1420FD0B9421AD0614515D02F
:1007C000494515D0514501D1120312E0594501D1D7
:1007D00002220EE0714501D120220AE0354D143588
:1007E000A94206D0334A2832914201D11A4600E08C
:1007F00022462F49091F0A6029E0A94213D0B142BD
:1008000015D0B94220D061451BD049451BD0514578
:1008100002D14FF4001217E0414502D14FF00072AF
:1008200012E0594501D102220EE0714501D120228A
:100830000AE0204D1435A94206D01E4A28329142C2
:1008400001D11A4600E02246134908394A600021C6
:1008500080F82010816A00291CD0BDE8F05F0847AD
:10086000FFE70825A540154214D01A0712D50A68DB
:1008700022F00E020A6090F84020C36B012101FAB9
:1008800002F25A60816380F82110002180F8201064
:10089000016BE0E7BDE8F09F080002401C00024049
:1008A0003000024044000240580002406C00024008
:1008B000080402401C04024030B560B11A4B0268C3
:1008C00014219A4209D2194B1344B3FBF1F1890068
:1008D000016417490AE0012030BD134B5B42134409
:1008E000B3FBF1F1890001640F490839C1630221AA
:1008F00080F82110136843F6F0718B43F0E901147E
:100900002143D0E902452C43214304692143446932
:10091000214384692143194311600021416301226D
:1009200042770177084630BD08040240F8FFFDBF5A
:100930000000024070B5044600F00AF90546601C4C
:1009400002D004480078044400F002F9401BA042A1
:10095000FAD370BD100000202DE9F84FDFF8C891E0
:100960000024A9F1040B23460F2709F1040AABF177
:10097000040ED1E00125A54006EA0502AA4276D17F
:10098000DFF8A8C14E68A6EB0C0866452BD00DDC3D
:10099000032E34D005DC36B3012E19D0022E2FD110
:1009A0001BE0112E16D0122E2AD119E0B8F5881F9F
:1009B00019D006DCB8F5803F15D0B8F5801F1FD1DF
:1009C00011E0B8F5001F0ED0B8F5041F18D10AE0E9
:1009D000CB6815E0CB681B1D12E0CB6808330FE035
:1009E000CB680C330CE08B682BB1012B4FF0080364
:1009F00003D0456104E0042302E0056100E0002328
:100A0000FF2A01D8064601E000F104064FEA8405FA
:100A100001D9A5F12005D6F8008007FA05FC28EADF
:100A20000C0803FA05F548EA0508C6F800804D6889
:100A3000ED0070D53E4DAE6946F00106AE61AD6980
:100A400024F0030605F0010500953A4D06EB050C70
:100A5000DCF80850A607360F07FA06F825EA08055D
:100A6000DFF8D480404503D14FF0000825E052E084
:100A7000DFF8C880404502D14FF001081DE0DFF8E3
:100A8000C080404502D14FF0020816E0DFF8B48084
:100A9000404502D14FF003080FE0DFF8AC8040453D
:100AA00002D14FF0040808E0DFF8A080404502D1F1
:100AB0004FF0050801E04FF0060808FA06F848EA8A
:100AC0000508CCF808804D68D9F80060ED024D4665
:100AD00001D5164300E096432E604D68DAF80060B9
:100AE000AD02554601D5164300E096432E604D6891
:100AF000DBF80060AD035D4601D5164300E0964388
:100B00002E604D68DEF80060ED03754601D5164392
:100B100000E096432E60641C0A681646E2407FF4AB
:100B200029AFBDE8F88F0000080401400000111053
:100B3000001002400000014000080140000C01408C
:100B4000001001400014014000180140001C014049
:100B5000014880687047000010000020024881684A
:100B6000027811448160704710000020074810B5DA
:100B7000016841F010010160032000F075F80F20BA
:100B800000F006F800F024F8002010BD002002401C
:100B900070B50D4D04464FF47A712878B1FBF0F032
:100BA0000A490968B1FBF0F000F0DCFA48B9102CF2
:100BB00007D200222146501E00F036F800206C605B
:100BC00070BD012070BD0000100000201C0000203E
:100BD0000C4808B5816941F001018161816901F02A
:100BE00001010091C16941F08051C161C06900F00B
:100BF000805000900448416821F0E06141F00071AC
:100C0000416008BD0010024000000140002809DBDF
:100C100000F01F02012191404009800000F1E02016
:100C2000C0F8001170470000F0B40E4B1B680C4672
:100C3000C3F30223C3F10705042D00D90425191DB0
:100C4000072901D2002300E0DB1E012606FA05F188
:100C5000491E214099409E40761E16403143F0BC0B
:100C600001F02BB90CED00E0064900F0070208681E
:100C70004FF6FF03184040EA0220034A1043086081
:100C8000704700000CED00E00000FA052DE9F04788
:100C90000F46050061D0434E306800F00700B842AF
:100CA00009D2306820F0070038433060306800F027
:100CB0000700B84251D128683B4C810712D5400744
:100CC00003D5606840F4E06060602878000703D5D1
:100CD000606840F4605060606068A96820F0F000CF
:100CE000084360602878C00728D06868012810D0C1
:100CF0002168022810D0890700292EDA616821F0C6
:100D0000030101436160FFF723FF804641F2883908
:100D10000DE021688903EFE78901EDE7FFF718FF90
:100D2000A0EB0801494502D90320BDE8F0876068BF
:100D3000696800F00C00B0EB810FEFD1306800F073
:100D40000700B8420BD9306820F007003843306004
:100D5000306800F00700B84201D00120E5E72878AC
:100D6000400705D56068E96820F4E06008436060EA
:100D70002878000706D56068296920F4605040EAA9
:100D8000C100606000F038F86168084AC1F30311DF
:100D9000515CC8400649086006480068FFF7F8FE45
:100DA0000020C2E700200240001002402823000873
:100DB0001C00002014000020044805490068496810
:100DC000044AC1F30221515CC84070471C00002056
:100DD00000100240382300080448054900684968AB
:100DE000044AC1F3C221515CC84070471C00002076
:100DF00000100240382300080E4A51680E4801F0E6
:100E00000C03042B11D0082B0FD10C48C1F38343E2
:100E1000C903C05C0AD55168084AC1F34041921E1B
:100E2000515C054A5043B0FBF1F070470449484318
:100E3000704700000010024000127A0018230008DA
:100E400000093D002DE9F84F040070D02078C04D16
:100E5000C00749D06868C0F38100012807D06868DE
:100E6000C0F38100022809D16868C00306D528684C
:100E7000800339D560680028E7D035E06068B0F5B8
:100E8000803F0BD010B1B0F5A02F11D0286820F40E
:100E900080302860286820F4802002E0286840F430
:100EA00080302860606890B1FFF752FE06460AE085
:100EB000286840F480202860F0E700BFFFF748FE74
:100EC000801B642873D828688003F7D50CE0FFF7EF
:100ED0003FFE064605E000BFFFF73AFE801B642890
:100EE000F0D828688003F7D420789A4E80074FF016
:100EF00001094FF0000839D5686810F00C0F07D0D1
:100F00006868C0F38100022809D16868C00306D46C
:100F10002868800714D52069012808D110E02069CD
:100F2000B0B1C6F80090FFF713FE074605E00AE1EE
:100F3000FFF70EFEC01B0228C4D828688007F7D52B
:100F40002868616920F0F80040EAC10028600DE0DF
:100F5000C6F80080FFF7FCFD074604E0FFF7F8FD48
:100F6000C01B022823D828688007F7D42078000700
:100F70002CD57948A169D9B1C0F80090FFF7E8FDF8
:100F8000074604E0FFF7E4FDC01B02280FD8686A9B
:100F90008007F7D571484FF4FA510068B0FBF1F0C3
:100FA000009000BF0098411E0091FAD20EE080E050
:100FB000C0F80080FFF7CCFD074604E0FFF7C8FD4E
:100FC000C01B022875D8686A8007F7D420784007CC
:100FD00060D5E8690027C00008D4E86940F0805077
:100FE000E861E869012700F0805000905C480168E2
:100FF000C90513D40168834641F480710160FFF78D
:10100000A7FD824606E000BFFFF7A2FDA0EB0A00A5
:1010100064284ED8DBF80000C005F5D5E06801284B
:101020000AD008B1052813D0286A20F001002862F0
:10103000286A20F0040002E0286A40F001002862DB
:10104000E06841F2883B98B1FFF782FD82460BE0F1
:10105000286A40F004002862EEE700BFFFF778FD41
:10106000A0EB0A0159455AD8286A8007F6D50CE04A
:10107000FFF76EFD824605E0FFF76AFDA0EB0A016F
:1010800059454CD8286A8007F6D41FB1E86920F08A
:101090008050E861E06988B36968C1F38101022981
:1010A00044D00228C6F8608004D0FFF751FD044602
:1010B00038E034E0FFF74CFD074604E0FFF748FD59
:1010C000C01B02282BD828688001F7D4206AB0F50D
:1010D000803F05D16868A16820F40030084368604B
:1010E000D4E908010843696821F474110843686071
:1010F000C6F86090FFF72CFD044606E025E000BF2F
:10110000FFF726FD001B022809D828688001F7D5C3
:101110001BE000BFFFF71CFD001B022802D90320C3
:10112000BDE8F88F28688001F4D40EE00128F7D0DC
:101130006868226A00F48031914204D1616A00F447
:101140007010884201D00120EAE70020E8E70000A3
:101150000010024000004242800442421C00002075
:101160000070004010B5401EB0F1807F01D3012017
:1011700010BD4FF0E02460610F21601700F09DFE6C
:101180000020A06107202061002010BD70B590F8FC
:101190003C20012A2CD0012480F83C40022280F817
:1011A0003D2003685A689D6822F070060A68324341
:1011B0005A60104B02689A420ED00F4B9A420BD0E5
:1011C000B2F1804F08D00D4B9A4205D00C4B9A4299
:1011D00002D00C4B9A4204D1496825F08003194390
:1011E000916080F83D40002180F83C10084670BDB9
:1011F000022070BD002C014000340140000400407A
:1012000000080040000C00402DE9F0410D460400AC
:1012100003D094F83D0018B108E00120BDE8F0814A
:10122000002084F83C00204600F040F8022084F8BA
:101230003D002068816844F2070291438160211DCE
:10124000206800F0C3FC226890689169166A2B68D8
:10125000AF69034340F20330814341EA0721A868A4
:10126000EF6908434FF6FC418843E96840EA0720EC
:10127000014328692F6A000140EA07300843696882
:101280006D6926F0220646EA051529439360226817
:10129000906154F8460B0162012004F81F09E075C3
:1012A0002076E0762077A0750020B7E710B586B0ED
:1012B000002400940194029403940068B0F1804FDC
:1012C00030D11948C16941F00101C161C16901F022
:1012D00001010491816941F004018161816901F09A
:1012E00004010491816941F00801816180696946C6
:1012F00000F0080004904FF4004000900B48FFF706
:101300002BFB0820CDE90004694609480294FFF749
:1013100023FB0849486820F4407040F0E06040F446
:101320008070486006B010BD001002400008014007
:10133000000C01400000014070B590F83E6004468A
:1013400090F83F5090F8423090F84320022021B1AD
:1013500004290ED0012E1BD114E0012E18D1012B2F
:1013600016D184F83E0084F8420001220021206852
:1013700020E0012D0CD1012A0AD184F83F0084F825
:10138000430014E0012D03D1012B01D1012A01D02A
:10139000012070BD84F83E0084F83F0084F84200CC
:1013A00084F8430001220021206800F05DFC012246
:1013B0000421206800F058FC2068016841F0010118
:1013C0000160002070BD704770470000F8B50168EB
:1013D00004460868CA684B6910F00F0F4FF000050B
:1013E00059D003F0010602F49077374365D0C10766
:1013F00005D0D10503D5616C41F00101616441075D
:1014000005D5D90703D0616C41F002016164810701
:1014100005D5D90703D0616C41F00401616401076F
:1014200007D502F02001314303D0616C41F008017F
:101430006164616C00293AD0800604D5900602D51B
:10144000204600F04DFC20684069616CC0F38010BC
:10145000090700D460B3204600F01BFC20684069F7
:10146000400621D52068143050E8001F21F04001CB
:1014700040E80012002AF5D1E06BA8B16D49416344
:10148000E06BFFF75DF8002811D0E06B416B01B015
:10149000BDE8F040084783060FD593060DD52046DA
:1014A000BDE8F84000F01CBC2046FFF78DFFF8BDFA
:1014B0002046FFF789FF6564F8BD266B2023012EC7
:1014C0007CD1C6067AD5D60678D5086848680090DB
:1014D00048694FF00206400640D5E16B0868406855
:1014E0000004000CE8D0A28D8242E5D9E08588692D
:1014F00020282DD020680C3050E8001F21F4807186
:1015000040E80012002AF5D12068143050E8001F8E
:1015100021F0010140E80012002AF5D120681430C2
:1015200050E8001F21F0400140E80012002AF5D1E8
:1015300084F84230256320680C3050E8001F21F009
:10154000100140E80012002AF5D1E06BFEF7D5FF4C
:101550006663A08DE18D401A81B22AE0A08DE18DF5
:10156000401A81B2E08D0028A6D00029A4D02268BC
:101570000C3252E8000F20F4907042E80007002F70
:10158000F5D12068143050E8002F22F0010240E825
:101590000027002FF5D184F84230256320680C30F5
:1015A00050E8002F22F0100240E80023002BF5D174
:1015B00066632046FFF707FFF8BDFFE705062BD55A
:1015C000150629D594F841002128F5D1A068B0F579
:1015D000805F01D12069B0B1206A411C216221687D
:1015E00000784860E08C401E0004000CE084E3D1E9
:1015F0002068C16821F08001C1602068C16841F0A5
:101600004001C160D8E7206A0088C0F30800486044
:10161000206A801C2062E5E74006CDD55006CBD578
:10162000CA68204622F04002CA6084F8413000F0C7
:101630009CF9C1E7831C000870B5040004D094F83D
:101640004100002510B106E0012070BD84F8405033
:10165000204600F023F8242084F841002068C16867
:1016600021F40051C160204600F09CFB2068016914
:1016700021F4904101612068416921F02A01416112
:101680002068C16841F40051C1606564202084F87D
:10169000410084F842006563002070BDF0B585B05C
:1016A00000240094019402940394064603685D4864
:1016B000DFF86CC1022103225B4D0715634525D17C
:1016C000836943F480438361836903F48043049313
:1016D000836943F0040383618069039200F004008E
:1016E00004900802CDE9000169462846FFF734F965
:1016F000CDE90074694628460294FFF72DF90022CF
:1017000011462520FFF790FA252029E0DFF81CC1BB
:10171000634529D1C36943F40033C361C36903F44A
:1017200000330493836943F0040383618069039267
:1017300000F0040004900420CDE900016946284629
:10174000FFF70AF90820CDE900046946284602940B
:10175000FFF702F9002211462620FFF765FA26203E
:10176000FFF754FA05B0F0BD314DAB42FAD1C36971
:1017700043F48023C361C36903F480230493836922
:1017800043F0100383618069CDE9007100F010001F
:10179000CDE90320274D69462846FFF7DDF8E81418
:1017A000CDE90004694628460294FFF7D5F822489F
:1017B000416821F0300141F0E06141F010014160E9
:1017C0001F4D1E488027C5E90004C5E902472C616A
:1017D0006C61AC612846EC61FFF76EF808B1FEF76A
:1017E0008AFEF5636E62164D14484435143801C5FF
:1017F000102091C5124845F8104944306C61AC6125
:10180000EC61FFF759F808B1FEF775FEB5630022E9
:10181000114627206E62FFF707FA2720A0E7000095
:101820000038014000100240000801400044004020
:10183000004800400010014000000140300002401C
:101840004001002090F84230202B01D00220704748
:1018500021B11AB10023036300F000BB01207047DF
:1018600070B52C4900252C4C88421FD16278582A2B
:1018700000D16560294960680A54401C60600A789C
:10188000582A0ED1497859290BD1052809DD24A001
:10189000FEF7C2FCA088214982B21E4800F04CF835
:1018A00065601D490122491C1A4818E01F498842F9
:1018B0002ED12278552A00D165801D486188425476
:1018C000491C89B261800B2906D30178552902D1C0
:1018D0004178532907D065800F4914480122BDE89B
:1018E0007040FFF7AFBF4FF400416180C17980794C
:1018F00040EA012000F080FB6FF00E0200F0C5FC12
:1019000000220C4B00F08CFB00F03CFBA060E3E7F6
:1019100070BD00006800002004000020C802002004
:101920000A676574646174610A000000B0000020F9
:10193000C80100200080664090F84130202B01D083
:101940000220704779B172B101628284C2840021A1
:101950004164212180F841100068C16841F0800194
:10196000C16000207047012070477047FEE700000B
:101970000D4808B5416941F001014161406900220B
:1019800000F00100009011460C20FFF74DF90C20EB
:10199000FFF73CF9002211460D20FFF745F9BDE89D
:1019A00008400D20FFF732B90010024010B586B094
:1019B0000020029003902148816941F0100181616B
:1019C000816901F010010491816941F02001816178
:1019D000816901F020010491816941F00401816174
:1019E000816901F004010491816941F0080181617C
:1019F0008069032400F0080004904FF2FF30CDE925
:101A0000000469460E48FEF7A7FF41F6F310CDE942
:101A1000000469460B48FEF79FFF4FF6F770CDE9CB
:101A2000000469460848FEF797FF0420CDE900044A
:101A300069460648FEF790FF06B010BD0010024050
:101A40000010014000080140000C0140001401405A
:101A500010B58CB024216846FEF75AFC00241548C6
:101A600009944FF080410A94C0E900144FF6FF71C9
:101A7000C0E90241046184610120CDE90004CDE99F
:101A800002040494CDE90540079469460948089486
:101A9000FFF7BAFB08B1FEF72EFD099409A9054826
:101AA0000A94FFF773FB002801D0FEF724FD0CB069
:101AB00010BD0000200000200C4810B50A4901604C
:101AC0004FF416514160002181600C22C160C0E9D1
:101AD00004128161C161FFF7AFFD002803D0BDE8AA
:101AE0001040FEF708BD10BD00380140680000201E
:101AF0000C4810B50A4901604FF4E1314160002102
:101B000081600C22C160C0E904128161C161FFF7EC
:101B100093FD002803D0BDE81040FEF7ECBC10BDDB
:101B200000440040B00000200C4810B50A49016094
:101B30004FF4E1314160002181600C22C160C0E9B5
:101B400004128161C161FFF777FD002803D0BDE871
:101B50001040FEF7D0BC10BD00480040F800002047
:101B6000FEE7FEE770477047FEF7F8BF30B58FB06D
:101B700028216846FEF7CCFB14210AA8FEF7C8FB13
:101B800001210804CDE900100024029402250491EB
:101B9000CDE907504FF4E01009906846FFF752F97D
:101BA00008B172B6FEE70F20CDE90A054FF4806058
:101BB000CDE90C4002210AA80E94FFF767F800282F
:101BC00001D072B6FEE70FB030BD7047F0B50268C5
:101BD000204C214D214E224F224B4FF0804CA042F1
:101BE00009D0984207D0604505D0A84203D0B04242
:101BF00001D0B84204D122F0700E4A6842EA0E02C7
:101C0000A04209D0984207D0604505D0A84203D031
:101C1000B04201D0B84203D122F44075CA682A43C9
:101C20004D6922F080022A4302608A68C2620A6813
:101C30008262A04201D0984201D109690163012169
:101C400041610169C90703D0016921F00101016106
:101C5000F0BD0000002C01400004004000080040DE
:101C6000000C00400034014010B501F01F030121B9
:101C7000046A99408C430462016A9A4011430162EC
:101C800010BD10B5406A0021C185C184FFF79CFBDF
:101C900010BD01680C3151E8002F22F4907241E828
:101CA0000023002BF5D10168143151E8002F22F0F8
:101CB000010241E80023002BF5D1016B012909D174
:101CC00001680C3151E8002F22F0100241E8002396
:101CD000002BF5D1202180F84210002101637047CC
:101CE00008B590F84210222901D0022008BD826870
:101CF0004FF480539A4201D1016921B1816A9A421D
:101D00001BD04AB10AE00268816A5268C2F3080235
:101D10000A80816A891C08E0026972B1026852680F
:101D200002F07F020A70816A491C8162C18D491EDE
:101D30000904090CC18503D01BE002685268F1E771
:101D40000168CA6822F02002CA600168CA6822F4E9
:101D50008072CA6001684A6922F001024A6120214A
:101D600080F8421000214163026B012A03D0FFF783
:101D700077FD002008BD016301680C3151E8002F98
:101D800022F0100241E80023002BF5D101680A6817
:101D9000D20602D50A6849680091818DFFF713FBCE
:101DA000E7E7000070B5044600680169E26821F4C5
:101DB0004051114301612169A068084361690843EA
:101DC0002168CA6841F20C639A430243CA602068E2
:101DD0004169A26921F44071114341611E492068A3
:101DE000884202D1FEF7F8FF01E0FEF7E5FF00EBC5
:101DF000C00101EB0012606864218000B2FBF0F3C7
:101E0000B3FBF1F36FF018067343B2FBF0F5B2FBCE
:101E1000F0F605EB8305322303EB0515B5FBF1F571
:101E2000B6FBF1F605F0F00505EB0615B2FBF0F692
:101E3000B2FBF0F0B0FBF1F06FF01802504306EB8C
:101E4000800003EB0010B0FBF1F0216800F00F0000
:101E50002844886070BD000000380140816282859E
:101E6000C28500214164222180F84210016921B11C
:101E70000168CA6842F48072CA6001684A6942F027
:101E800001024A610068C16841F02001C160002080
:101E9000704700000148FFF799BA00006800002071
:101EA0000148FFF793BA0000B00000200148FFF797
:101EB0008DBA0000F8000020FEE70907090E00288F
:101EC00004DB00F1E02080F80014704700F00F0000
:101ED00000F1E02080F8141D7047704704490A683B
:101EE0005206FCD5024AC1B2121D116070470000B3
:101EF00000380140FEF73AFEFFF738FEFFF756FDC7
:101F0000FFF736FDFFF7D8FDFFF7F2FDFFF7A0FD65
:101F1000FFF70AFE012211491148FFF793FC012245
:101F200010491148FFF78EFC3C211048FFF704FAD6
:101F30000E4D0F4C00262868416A0068C04340F3EC
:101F400000120CA0521CFEF767F92088000400D58F
:101F500026806420FEF7EEFCEDE70000050000207F
:101F60006800002004000020B000002020000020B5
:101F700006000020656E636F64653A2025642025A5
:101F8000640D0A0021F00042A2F16052B2F5801FF8
:101F900001F0004328BFD2F17F6C0BD95FEA001C2F
:101FA00043EAC20242EB507018BF704728BF20F0CE
:101FB00001007047B2F5801FBCBF184670474FEA5A
:101FC000410C1CF5001F02D2084600F027B970B57D
:101FD00000F0D0F800000089FFF7F6BF4FF0004096
:101FE000A0F580007047000002494FF0000000F0AB
:101FF0001AB900BF0000F87FB0FA80F310FA03F1BD
:102000000AD0C3F11D0303F580634FEA41504FEA44
:10201000035202EBD12170474FF0000070470000DF
:10202000DFF848C170B51CEA111E1EBF1CEA13156B
:102030009EEA0C0F95EA0C0F00F06F8081EA030412
:1020400023EA4C134EEAD47E21EA4C1141F480116C
:1020500043F48013AE44A1FB024CA0FB0365AEF138
:102060007F7E361955EB0C05A1FB034C4CF10003A8
:10207000A0FB021C16EB0C06654153F1000309425C
:1020800018BF46F0010613F4007F0BD14FEA03316D
:102090004FEA0530340341EA155140EA16506FF01B
:1020A00003020AE04FEAC3214FEAC520F40241EAE5
:1020B000555140EA56506FF0020202EB2E4201EBFE
:1020C000025585EACE710AD05FEA440C18BF24F0AD
:1020D000004450F1000041F1000120EAD47040F2C8
:1020E000FE7C624500D270BDA84214BF4FF0804410
:1020F0004FF04044002E08BF0024BEF1806FA8BFFF
:10210000A1F1C041BDE8704080F282804FF0000034
:1021100001F1C04101F0004170479EEA0C0F0CEA4A
:10212000131518BF95EA0C0F06D04FF0000081EA96
:10213000030E0EF0004170BD00F01CF88900013E56
:1021400000F007B800F009B84FEA430C5FEA5C5CA6
:1021500008D081EA030100F05BB84FEA410C5FEA66
:102160005C5CF6D14FF00000014970470000FF07AA
:102170000000F87F0EF1020E2EF0030E5EF8046BE5
:10218000364205D4012A43EB030515F5001F12D88A
:10219000012841EB010C1CF5001F0CD80ED14FEAB1
:1021A000D17C15F5001F0CEB4C0C0CF1020C08BF98
:1021B0004CEBD37C04E04FF0080C01E04FEAD37CF9
:1021C0000CEB4C0526FA05F606F00706B6F1040CF2
:1021D00006D20EEB860CBDE870404CF0010C604757
:1021E000DFE80CF0090B02024FF000414FF0000055
:1021F000A1F5002170BD19461046012851EB0104DC
:1022000018BFD4F5001484BF002001F0004170BD58
:102210000808A0F500114FEA31017047FF2141EA9B
:10222000D050C00570470CF00F03092B08BF0820E1
:1022300000F059800A2B0BD0082B18BF704708BF3D
:102240001CF0400F0AD04FF000004FF00001704723
:102250001CF0400F18BF4FF0004070471CF0100FEB
:1022600008D020F0704300F07F4242EAD3014FEAE9
:102270004370704700F0604021F07F4242EA000264
:1022800001F07F4040EA727070474FF0FF0C4CF451
:10229000E06C1CEA11531CBF9CEA030C9445C2BFBE
:1022A000DA4201EB02517047002B0DD0BCF1000F58
:1022B0000FD0002A01F00041A4BF41F0E04141F0FD
:1022C0007F614FF00000704701F000414FF00000C7
:1022D000704750EA01334FF09B0C18BF4CF0806CF4
:1022E0007FF482AE70471CF4801F11D01CF4E02FE5
:1022F00003D06FEACC31490070474FF04050EFF304
:10230000008222F0704242EA000282F300887047A5
:102310004FF0000070470102020304050607080998
:102320000A0B0C0D0E0F1010000000000000000042
:10233000010203040607080900000000010203046B
:102340006023000800000020200000006C0100084D
:102350008023000820000020080A000088010008EF
:10236000000000000000000000000000000000006D
:1023700001000000100000000000000000127A00C0
:0400000508000131BD
:00000001FF
