:020000040800F2
:10000000B00C0020E5010008CD350008A12E000845
:10001000A9330008E5110008893B00080000000032
:10002000000000000000000000000000753600081D
:10003000E71100080000000073360008773600085A
:10004000FF010008FF010008FF010008FF01000890
:10005000FF010008FF010008FF010008FF01000880
:10006000FF010008FF010008FF010008FF01000870
:10007000FF010008FF010008FF010008FF01000860
:10008000FF010008FF010008FF010008FF01000850
:10009000FF010008FF010008FF010008FF01000840
:1000A000FF010008FF010008FF010008FF01000830
:1000B000DD360008FF010008E9360008FF010008EE
:1000C000FF010008FF010008FF010008FF01000810
:1000D000FF010008713B00087D3B0008FF0100089C
:1000E000FF010008FF010008FF01000819370008A0
:1000F000FF010008FF010008FF010008FF010008E0
:10010000FF010008FF010008F5360008FF010008A4
:10011000FF010008FF010008013700080D37000843
:10012000FF010008FF010008FF010008FF010008AF
:1001300000F002F800F047F80AA090E8000C8244B2
:100140008344AAF10107DA4501D100F03CF8AFF28F
:10015000090EBAE80F0013F0010F18BFFB1A43F0A5
:1001600001031847D0460000F0460000103A24BFB3
:1001700078C878C1FAD8520724BF30C830C144BF0C
:1001800004680C607047000000230024002500264E
:10019000103A28BF78C1FBD8520728BF30C148BFEA
:1001A0000B607047662904F06C82002070471FB511
:1001B00000F0C6FA04000020002103F0A5FDE06075
:1001C0001FBD10B510BD00F0D7FB1146FFF7EFFFC4
:1001D00003F00CFD00F0F5FB03B4FFF7F2FF03BCE6
:1001E00003F0F7FC0948804709480047FEE7FEE7AF
:1001F000FEE7FEE7FEE7FEE7FEE7FEE7FEE7FEE7D7
:1002000004480549054A064B70470000D9360008E6
:1002100031010008B0060020B00C0020B00800201A
:10022000B0080020704700000FB4044910B503AABD
:10023000029800F073FA10BC5DF814FB0000002077
:100240002DE9F0410E460446002020622046E16878
:10025000884730B3252805D0D4E901219047206A8A
:10026000401CF2E7E168204600278847050018D0C7
:10027000A5F14100192802D820354FF40067324615
:10028000294620462760FFF78DFF40B1012804D0A2
:10029000F61D26F007060836D8E7361DD6E72846AD
:1002A000DAE7206ABDE8F0814FF0000200B513469E
:1002B00094469646203922BFA0E80C50A0E80C5086
:1002C000B1F12001BFF4F7AF090728BFA0E80C5037
:1002D00048BF0CC05DF804EB890028BF40F8042B30
:1002E00008BF704748BF20F8022B11F0804F18BF9D
:1002F00000F8012B70477047704770477047704790
:100300002DE9FF4F0C461E464FF0FF378BB0D2E968
:100310000001DDF860800A908A46C1F30A5505B9EC
:100320003D46002108464FF00000BAF1000F00F4EE
:10033000400005DA00EB80004FF4400101EA500074
:100340004FEA9059B9F1010F00DDB9460A9850EA19
:100350004A000ED044F61050A5F2FF3545432F1445
:10036000B8F1000F1ED07542291E1EDDC9F1000232
:100370001CE0B8F1010F4FF0000001D0302103E084
:10038000F24305E02154401CB042FBDB3046002222
:10039000002121540B99C1F80880C1E900200FB059
:1003A000BDE8F08FBD1B6D1CDEE74A4600DA6942EE
:1003B00006A800F067FA06AB93E8070003AB83E8F2
:1003C000070050460A9900F045FB8DE80700A0F5AC
:1003D00000501F3800900398002D0ADD42F21F01E3
:1003E0004A460844002303A90390684600F0AEFD86
:1003F00009E0A0F500504A461F38002303A90390E6
:10040000684600F0B8FD8DE807000004000C03D03A
:100410004FF0FF30410800E01046B8F1000F03D064
:100420000022009215461EE0751E05D400F08CF9DE
:10043000303262556D1EF9D5B3460122084302D011
:1004400000227F1C04E02078302801D100227F1E8A
:10045000002A099784D01DE0112D07DA00F074F905
:10046000303262556D1C50EA0102F5D1084302D0CA
:100470000098C8B10EE00021681E05E0235C625CB4
:1004800063542254401E491C8142F7DBAB46A81B33
:10049000401E0990002004F80B000B98099AC0F840
:1004A0000880C0E9002B7AE711264FF0000857E7D3
:1004B0002DE9F04F88460446D21D22F0070191B085
:1004C000D1E90001CDE90A0103F05FFB02460B9878
:1004D000C00F01D02D2007E02068810701D52B2017
:1004E00002E0202101EAC000032A099001D0072A76
:1004F00005DB03464146204600F084F90BE12078F5
:10050000800601D5E06900E00620B8F1650F81465C
:1005100006D0B8F1660F18D0B8F1670F70D131E08E
:100520000020B9F1110F009001DB112301E009F166
:1005300001030AAA01A90CA8FFF7E2FEDDE90C708D
:10054000002609F10105834647E001204B46009053
:100550004FF000470AAA01A90CA8FFF7D1FEDDE978
:100560000DB00C995D46002610B909F101000D1877
:10057000B9EB050003D4C0F1FF3609F10105A5EB85
:1005800009002BE0B9F1010F01DA4FF00109002059
:10059000B9F1110F0090484601DD112300E0034638
:1005A0000AAA01A90CA8FFF7ABFEDDE90C704D46C5
:1005B00000268346207800070AD4AB4500DA5D4662
:1005C00001A8012D04DD411911F8011C302907D0C3
:1005D0004F4502DA17F1040F04DA012082460FE0DA
:1005E0006D1EEEE7002F02DCED1B3E4403E0781C9D
:1005F000A84200DD7D1CB81B00F1010A4FF0004746
:100600002078000703D4AA4501DB4FF0FF3A002110
:10061000B7F1004F0DF143088DF8431024D00220AC
:100620002B23002F01DA7F422D230A21021EA0F185
:10063000010000DC5FB197FBF1FC97FBF1F201FBDD
:100640001C7C17460CF1300C08F801CDEEE7A8F140
:10065000010003702188090501D5452100E06521CD
:10066000A0F1010800F8011C09980FA9A1EB0807E7
:10067000FF1D00B10120411901EBEA70A169384466
:10068000081A401EA0612078C00602D42046AFF3AD
:100690000080099828B1D4E901219047206A401CC4
:1006A00020622078C00622D52046AFF300801EE0ED
:1006B000002E04DBB34502DD01A8805D00E03020A0
:1006C000D4E901219047206A401C2062761CAAF1DF
:1006D00001005FEA000A0AD100F032F8C068016840
:1006E000405CD4E901219047206A401C2062281E0A
:1006F000A5F10105DCDC07E0D4E9012118F8010BC4
:100700009047206A401C2062381EA7F10107F3DCE5
:100710002046AFF30080032011B041E6074B70B5CF
:100720000D467B4400F05BF80446284600F01CF9B7
:1007300010B14FF0FF3070BD204670BDAF340000E7
:10074000004870477006002030B5B0F10A024FEA49
:10075000900E71F100034EEA817EB0EB0E0061EB6A
:1007600091014FEA101E4EEA017E10EB0E0041EBA4
:1007700011114FEA102E4EEA016E10EB0E0041EB04
:1007800011214FEA104E4EEA014E10EB0E0041EBE4
:100790001141401841F100014FEAD00040EA417098
:1007A0004FEAD10110EB80054FEA810444EA9074CE
:1007B00044EB01046D1944EB0404521BA3414FF0B8
:1007C000000348BF0A3200D530BD401C41F1000192
:1007D00030BD000001694A1C02610878704700B50D
:1007E0008FB0CDE901310021059105497944CDE96A
:1007F000031011466846FFF723FD0FB000BD00004F
:10080000E5FFFFFF2DE9F0411F460446032601687E
:10081000072A01F4006004DB08B116A505E016A55F
:1008200003E008B115A500E015A521F01000206037
:10083000A069C01EA0610FB1401EA0612046AFF3A9
:1008400000804FB1D4E9012138469047206A401C0E
:100850002062C01C206206E0206AFAE7D4E9012188
:1008600015F8010B9047761EF8D22046AFF30080B2
:10087000BDE8F0814E414E006E616E00494E46006B
:10088000696E66002DE9F047814616468AB0354804
:1008900078440DC88DE80D0032487844801C03ACC4
:1008A0000DC884E80D0041F69B300844372190FBC9
:1008B000F1F290FBF1F5A5F1800501FB12041B3C60
:1008C00002D56442012000E00020DFF898A08046B5
:1008D0000027FA44AAF1BE0A0EE0E0070AD0324629
:1008E000684607EB470101230AEB810100F043FB57
:1008F0008DE8070064107F1C002CEED1194F7F4457
:10090000AE3F19E0E80715D007EB04100DF1180A07
:1009100090E80E008AE80E00C068F04201D19819F4
:1009200008903246012306A903A800F024FB03AB7C
:1009300083E807006D10641C002DE3D14FF0010324
:1009400032466946B8F1000F03A802D000F0FEFA63
:1009500001E000F010FBC9E90001C9F808200AB065
:10096000BDE8F087883F0000007B00F08000704702
:1009700000487047500600207546FFF7F9FFAE4665
:1009800005006946534620F00700854618B020B59B
:10099000FFF736FCBDE820404FF000064FF000079F
:1009A0004FF000084FF0000B21F00701AC46ACE817
:1009B000C009ACE8C009ACE8C009ACE8C0098D4684
:1009C000704710B50446AFF300802046BDE81040E4
:1009D000FFF702BC4FF0013C50F8042B51F8043BE8
:1009E0009A4221D1A2EB0C03934313EACC1317D103
:1009F00050F8042B51F8043B9A4215D1A2EB0C039A
:100A0000934313EACC130BD150F8042B51F8043B59
:100A10009A4209D1A2EB0C03934313EACC13DBD027
:100A20004FF00000704700BFD01A01BAB1FA81F14F
:100A300001F0180122FA01F0CB40C1F12001DBB234
:100A4000C0B2C01A2CFA01F3D11A914311EAC311B2
:100A5000E6D170475FEA400C08BF91F0000F4FEA03
:100A60008C234FEAC12243EA51514FEA1C5018BF70
:100A700000F5F0404FEA300018BF41F000415FEA56
:100A80006C5C00F02980BCF1FF3F08BF40F0804063
:100A90007047130C06BF12044FF0100C4FF0000CFF
:100AA000130E04BF12020CF1080C130F04BF120145
:100AB0000CF1040C930F04BF92000CF1020CD30F45
:100AC00004BF52000CF1010C11464FF00002A0F1DE
:100AD0001F00A0EB0C00704711F0004F08BF7047DB
:100AE00031F000413FF4D5AF0B0C06BF09044FF0C5
:100AF000100C4FF0000C0B0E04BF09020CF1080C97
:100B00000B0F04BF09010CF1040C8B0F04BF89000B
:100B10000CF1020CCB0F04BF49000CF1010CCCF11D
:100B20002003A0EB0C0022FA03F302FA0CF241EAD4
:100B3000030100F10100704720F07F4C80EA0300C0
:100B400023F07F47ACEB070303F57C5300F0004034
:100B500003F1FF032DE980494FEA154B09B44FEA31
:100B6000144325EA0B4E24EA03480FF2042606EB51
:100B7000132749083E785FEA320203FB0667C7F590
:100B8000000707FB06F64FEA54374FEAD64606F150
:100B9000020607FB066CCCF1005C4FEA1C472CEA0E
:100BA000074C07FB06F40CFB06F504EB15464FEA71
:100BB000961634BF00204FF000404FEAD13706FBB5
:100BC00007FC4FEA1C4C0CFB0BF7D21B03FB0CF78A
:100BD00061EB07010CFB0EF7B0EB074072EB17421D
:100BE0000CFB08F734BFA2EB0742B2EB074261EB04
:100BF00017414FEA0C444FEA910706FB07FC4FEA06
:100C00001C4C0CFB0BF7B0EBC74072EB573203FBED
:100C10000CF734BFA2EBC742B2EBC74261EB5731CE
:100C20000CFB0EF7B0EBC70072EB57720CFB08F72A
:100C300034BFA2EBC702B2EBC70261EB5771039F4F
:100C40004FEA816141EA921104EBCC044FEAD137BB
:100C50004FEA826206FB07FC42EA90124FEA80608C
:100C60004FEA1C4C0CFB0BF7D21B03FB0CF761EBA0
:100C700007010CFB0EF7B0EB074072EB17420CFBC1
:100C800008F734BFA2EB0742B2EB074261EB174112
:100C90004FEA8C554FEA910704EB9C2406FB07FCB6
:100CA0004FEA1C4C0CFB0BF7B0EBC74072EB573212
:100CB00003FB0CF734BFA2EBC742B2EBC74261EBB8
:100CC00057310CFB0EF7B0EBC70072EB57720CFB01
:100CD00008F734BFA2EBC702B2EBC70261EB577152
:100CE00015EB4C254FEA816141EA92114FEA82628D
:100CF0004FEAD13742EA901206FB07FC44F10004A8
:100D00004FEA80604FEA1C4C0CFB0BF7D21B03FB35
:100D10000CF761EB07010CFB0EF7B0EB074072EB31
:100D200017420CFB08F734BFA2EB0742B2EB0742B5
:100D300061EB174115EB1C154FEA813141EA9241F5
:100D40004FEA823242EA90424FEA80304FEA0C7614
:100D500044F1000448EA03434EEA0B484FF0000E0A
:100D6000B2EB080C71EB030724BF624639464EEB29
:100D70000E0E4FF0000B0018524149414BEB0B0B8C
:100D8000B2EB080C71EB03077BF1000B24BF62464A
:100D900039464EEB0E0E4FF0000B00185241494100
:100DA0004BEB0B0BB2EB080C71EB03077BF1000B69
:100DB00024BF624639464EEB0E0E51EA020718BFB9
:100DC00046F0010616EB0E7655F1000254F10001D3
:100DD00003D5BDE88901BDE80088BDE88901BDE80B
:100DE0000048B619524141EB0101A3F101037047DC
:100DF00080807F7E7D7C7B7A797877767675747358
:100E0000727171706F6E6E6D6C6C6B6A6A69686816
:100E1000676666656464636362616160605F5F5EAC
:100E20005E5D5D5C5C5B5B5A5A5959585857575622
:100E30005655555554545353525252515150505087
:100E40004F4F4F4E4E4D4D4D4C4C4C4B4B4B4A4AD9
:100E50004A4949494848484747474746464645451D
:100E60004544444444434343434242424241414156
:100E7000002B9C4630D477002BD01CB54FEA3707A7
:100E800003B44FF010004FF01001BAF1000F06D07C
:100E9000BCF1000FDCBF40F0080040F008014FF04B
:100EA00000000FBCBDE810400BF1010BBBF1010FBE
:100EB00008BF5FEA170722BF12F1010211F1010119
:100EC0004FF0004143F1000300F0004043EA00000E
:100ED0007047F9D35708D0E746EA064613F1400FAA
:100EE0004FEA16461FDD13F1200FDFBF16430A46F7
:100EF000002120335B42BED0C3F1200746EA0646FC
:100F000002FA07F74FEA164646EA0706C3F120073A
:100F100022FA03F201FA07F721FA03F14FF0000376
:100F200042EA0702A7E746EA020646EA06464FEA11
:100F3000164646EA0106BCBF46EA0646360C4FF0A6
:100F400000034FF000024FF0000194E72DE9804CC0
:100F50009A46934670B491E8380007C831EA400CCD
:100F600048BF34EA430C03D5FFF7E6FDFFF780FFE7
:100F7000F0BCBDE8008C2DE9804C9A46934670B4D5
:100F800091E8380007C810F0804F08BF13F0804F79
:100F900003D100F005F8FFF76BFFF0BCBDE8008C53
:100FA00020F07F4780EA030023F07F4C07EB0C031F
:100FB000A3F57C5300F00040A3F1FE0392F0000F74
:100FC00000F0B38095F0000F00F077802DE9014923
:100FD0004FEA11404FEA144621EA004800FB06FCA4
:100FE00024EA064708FB06F607FB08F800FB07F7AC
:100FF00018EB06484CEB164C4FEA124B18EB07481F
:101000004FEA15464CEB174022EA0B4E0BFB06FC51
:1010100025EA06470EFB06F607FB0EFE0BFB07F75D
:101020001EEB064E4CEB164C4FF000061EEB074E27
:101030004CEB174B18EB0B0840F1000018EB0E0BB4
:1010400058EB000840F100008F1A4FF000013CBF40
:10105000C943661B14BFB5EB040C00213CBFC94358
:10106000F61B4FEA17444EEA8E0E27EA04454FEA74
:101070001C4704FB07622CEA074C05FB07F70CFB37
:1010800005F604FB0CFC16EB074642EB174216EB89
:101090000C4642EB1C421BEB060658EB0202414198
:1010A00046EA9E0601D5BDE80189B619524141EBD9
:1010B0000101A3F10103BDE801894FEA14454FEA9C
:1010C000114724EA054621EA074C05FB07F406FB15
:1010D00007F70CFB06F105FB0CFC11EB074144EB99
:1010E00017444FEA124711EB0C4144EB1C4422EA2F
:1010F000074C05FB07F206FB07F70CFB06F605FBA2
:101100000CFC16EB074642EB174216EB0C4642EB83
:101110001C456A1854F1000148BF7047B619524186
:1011200041EB0101A3F10103704795F0000F37D0A7
:101130004FEA11424FEA144721EA024624EA074CDB
:1011400002FB07F106FB07F70CFB06F402FB0CFCA5
:1011500014EB074441EB17414FEA154714EB0C44DD
:1011600041EB1C4125EA074C02FB07F506FB07F79C
:101170000CFB06F602FB0CFC16EB074645EB17458D
:1011800016EB0C4645EB1C42121951F1000148BF09
:101190007047B619524141EB0101A3F101037047B9
:1011A0004FEA14454FEA114724EA054621EA074C65
:1011B00005FB07F106FB07F70CFB06F24FF00006F4
:1011C00005FB0CFC12EB074241EB174112EB0C4202
:1011D00051EB1C4148BF7047921841EB0101A3F14C
:1011E00001037047FEE7704772B6FEE770B5040072
:1011F00003D094F8200010B104E0012070BD204617
:1012000000F082F82068016841F00101016000F0FF
:101210008DFA0546052604E000F088FA401B0A28EE
:1012200011D820684068C007F6D02068016821F016
:101230000201016000F07AFA05460BE000F076FA50
:10124000401B0A2806D9606A40F40030606284F8C6
:101250002060D2E7206840688007EFD4207E012814
:10126000206801683DD021F080010160607E012886
:101270002068016838D021F040010160A07E01287B
:101280002068016833D021F020010160E07E012850
:10129000206801682ED041F010010160207F0128F4
:1012A0002068016829D021F008010160607F0128D1
:1012B0002068016824D021F004010160D4E9020112
:1012C0000843D4E90412114308436168491E0843E6
:1012D0002168C86100206062012084F8200000209D
:1012E00070BD41F08001C0E741F04001C5E741F029
:1012F0002001CAE721F01001CFE741F00801D4E74F
:1013000041F00401D9E7000010B586B0002100913A
:101310000191029103910068184988422BD1184825
:10132000C16941F00071C161C16901F000710491AE
:10133000816941F0080181618069124C00F0080068
:1013400004904FF4807000906946204600F0ECF85D
:10135000601500900220019003200390694620460A
:1013600000F0E2F80848416821F4C04141F0E06132
:1013700041F48041416006B010BD000000640040AF
:1013800000100240000C01400000014010B590F830
:1013900021100022022905D00421816380F8202039
:1013A000012010BD01680B6823F00E030B6001687B
:1013B0000B6823F001030B6090F84030C46B0121EF
:1013C00001FA03F3636080F8211080F820201046B2
:1013D00010BD00002DE9F05F90F8211000240229D3
:1013E00003D004218163012485E001680A6822F0AA
:1013F0000E020A6001680A6822F001020A603F4E8C
:101400003E4FB215DFF8F4C0DFF8F090DFF8ECA043
:10141000DFF8E8B0DFF8E4E00168783F1301150277
:10142000ACF1640CA9F15009AAF13C0AABF1280B0C
:10143000AEF1140E4FF48018B14227D9B9420ED044
:10144000614512D049451DD0514518D0594518D095
:10145000714501D1424615E0294EB14201D1012228
:1014600010E0274E1436B14201D110220AE0244E7A
:101470002836B14206D0224A3C32914201D11A4666
:1014800000E02A461E49091F0A602BE0B94213D02A
:10149000614517D0494522D051451DD059451DD031
:1014A000714501D142461AE0B14202D14FF080723B
:1014B00015E0134EB14201D1012210E0104E143656
:1014C000B14201D110220AE00D4E2836B14206D0B9
:1014D0000B4A3C32914201D11A4600E02A460749A4
:1014E00080394A60012180F82110002180F8201005
:1014F000416B01B188472046BDE8F09F8000024063
:101500000804024070B5044600F010F90546601C5E
:1015100002D004480078044400F008F9401BA042BF
:10152000FAD370BD2C0000202DE9F84FDFF8C891E8
:101530000024A9F1040B23460F2709F1040AABF19B
:10154000040ED1E00125A54006EA0502AA4276D1A3
:10155000DFF8A8C14E68A6EB0C0866452BD00DDC61
:10156000032E34D005DC36B3012E19D0022E2FD134
:101570001BE0112E16D0122E2AD119E0B8F5881FC3
:1015800019D006DCB8F5803F15D0B8F5801F1FD103
:1015900011E0B8F5001F0ED0B8F5041F18D10AE00D
:1015A000CB6815E0CB681B1D12E0CB6808330FE059
:1015B000CB680C330CE08B682BB1012B4FF0080388
:1015C00003D0456104E0042302E0056100E000234C
:1015D000FF2A01D8064601E000F104064FEA84051F
:1015E00001D9A5F12005D6F8008007FA05FC28EA04
:1015F0000C0803FA05F548EA0508C6F800804D68AE
:10160000ED0070D53E4DAE6946F00106AE61AD69A4
:1016100024F0030605F0010500953A4D06EB050C94
:10162000DCF80850A607360F07FA06F825EA080581
:10163000DFF8D480404503D14FF0000825E052E0A8
:10164000DFF8C880404502D14FF001081DE0DFF807
:10165000C080404502D14FF0020816E0DFF8B480A8
:10166000404502D14FF003080FE0DFF8AC80404561
:1016700002D14FF0040808E0DFF8A080404502D115
:101680004FF0050801E04FF0060808FA06F848EAAE
:101690000508CCF808804D68D9F80060ED024D4689
:1016A00001D5164300E096432E604D68DAF80060DD
:1016B000AD02554601D5164300E096432E604D68B5
:1016C000DBF80060AD035D4601D5164300E09643AC
:1016D0002E604D68DEF80060ED03754601D51643B7
:1016E00000E096432E60641C0A681646E2407FF4D0
:1016F00029AFBDE8F88F0000080401400000111078
:10170000001002400000014000080140000C0140B0
:10171000001001400014014000180140001C01406D
:101720000AB1016170470904FBE7000001488068C5
:10173000704700002C00002070B5040025D094F8FC
:101740003D00002520B984F83C50204600F0B8F850
:10175000242084F83D002068016821F00101016027
:101760002068016841F4004101602068016821F4AB
:101770000041016000F002FA4D4A6168914201D8CF
:101780004C4900E04C49884201D2012070BD4B49D0
:101790002368B0FBF1F15E6826F03F060E435E6001
:1017A0006368934206D94FF4967359434FF47A73A2
:1017B000B1FBF3F12368491C1E6A26F03F06314352
:1017C00019626168914210D84900401EB0FBF1F2E5
:1017D000521CC2F30B02042A01D2042022E0B0FB07
:1017E000F1F0401CC0F30B001CE0A268F2B301EB67
:1017F000C10303EB0116431EB3FBF6F35B1C43F47A
:1018000080431B0549D092B301EBC10202EB0111E9
:10181000401EB0FBF1F0401CC0F30B0040F48040D0
:1018200040F400402168CA694CF6FF739A431043A4
:10183000C861D4E9071001432068026822F0C002A1
:1018400011430160D4E9030101432068826848F232
:10185000FF339A4311438160D4E9050108432168AD
:10186000CA6822F0FF021043C86001E00EE016E0F3
:101870002068016841F0010101602564202084F89E
:101880003D00256384F83E50002070BD01EB410609
:10189000431EB3FBF6F35B1CB3E70120C2E701EB89
:1018A0004101401EB0FBF1F0401CC0F30B00B7E754
:1018B000A086010080841E0000093D0040420F0008
:1018C00010B586B00021009101910291039100684A
:1018D000104988421BD1104CA06940F00800A0615B
:1018E000A069694600F0080004904FF44060009041
:1018F00012200190032003900848FFF715FEE069CD
:1019000040F48000E061E06900F48000049006B0DB
:1019100010BD00000058004000100240000C0140C3
:101920000248816802781144816070472C000020D1
:10193000074810B5016841F010010160032000F074
:1019400075F80F2000F006F800F024F8002010BD14
:101950000020024070B50D4D04464FF47A7128788E
:10196000B1FBF0F00A490968B1FBF0F000F0DCFAD5
:1019700048B9102C07D200222146501E00F036F83C
:1019800000206C6070BD012070BD00002C000020A4
:10199000380000200C4808B5816941F001018161DF
:1019A000816901F001010091C16941F08051C1617B
:1019B000C06900F0805000900448416821F0E06167
:1019C00041F00071416008BD00100240000001407C
:1019D000002809DB00F01F0201219140400980002E
:1019E00000F1E020C0F8001170470000F0B40E4B89
:1019F0001B680C46C3F30223C3F10705042D00D96D
:101A00000425191D072901D2002300E0DB1E012651
:101A100006FA05F1491E214099409E40761E164067
:101A20003143F0BC02F0C5B80CED00E0064900F00F
:101A3000070208684FF6FF03184040EA0220034AF5
:101A400010430860704700000CED00E00000FA054C
:101A50002DE9F0470F46050061D0434E306800F095
:101A60000700B84209D2306820F0070038433060E0
:101A7000306800F00700B84251D128683B4C81071C
:101A800012D5400703D5606840F4E06060602878B4
:101A9000000703D5606840F4605060606068A96822
:101AA00020F0F000084360602878C00728D06868FC
:101AB000012810D02168022810D0890700292EDAC9
:101AC000616821F0030101436160FFF72FFE80464A
:101AD00041F288390DE021688903EFE78901EDE7DC
:101AE000FFF724FEA0EB0801494502D90320BDE819
:101AF000F0876068696800F00C00B0EB810FEFD1EF
:101B0000306800F00700B8420BD9306820F00700B9
:101B100038433060306800F00700B84201D001203F
:101B2000E5E72878400705D56068E96820F4E060BB
:101B3000084360602878000706D56068296920F4AA
:101B4000605040EAC100606000F038F86168084AFF
:101B5000C1F30311515CC84006490860064800689B
:101B6000FFF7F8FE0020C2E700200240001002400C
:101B7000884700083800002030000020044805494C
:101B800000684968044AC1F30221515CC8407047AB
:101B9000380000200010024098470008044805491A
:101BA00000684968044AC1F3C221515CC8407047CB
:101BB0003800002000100240984700080E4A516883
:101BC0000E4801F00C03042B11D0082B0FD10C4848
:101BD000C1F38343C903C05C0AD55168084AC1F305
:101BE0004041921E515C054A5043B0FBF1F07047F2
:101BF00004494843704700000010024000127A0078
:101C00007847000800093D002DE9F84F040070D026
:101C10002078C04DC00749D06868C0F38100012812
:101C200007D06868C0F38100022809D16868C00342
:101C300006D52868800339D560680028E7D035E0EC
:101C40006068B0F5803F0BD010B1B0F5A02F11D077
:101C5000286820F480302860286820F4802002E082
:101C6000286840F480302860606890B1FFF75EFD1E
:101C700006460AE0286840F480202860F0E700BFAC
:101C8000FFF754FD801B642873D828688003F7D5BC
:101C90000CE0FFF74BFD064605E000BFFFF746FDF1
:101CA000801B6428F0D828688003F7D420789A4EE7
:101CB00080074FF001094FF0000839D5686810F02F
:101CC0000C0F07D06868C0F38100022809D168684A
:101CD000C00306D42868800714D52069012808D1DC
:101CE00010E02069B0B1C6F80090FFF71FFD07466D
:101CF00005E00AE1FFF71AFDC01B0228C4D82868D6
:101D00008007F7D52868616920F0F80040EAC10033
:101D100028600DE0C6F80080FFF708FD074604E0E4
:101D2000FFF704FDC01B022823D828688007F7D4DA
:101D3000207800072CD57948A169D9B1C0F8009066
:101D4000FFF7F4FC074604E0FFF7F0FCC01B022895
:101D50000FD8686A8007F7D571484FF4FA510068C8
:101D6000B0FBF1F0009000BF0098411E0091FAD244
:101D70000EE080E0C0F80080FFF7D8FC074604E0E2
:101D8000FFF7D4FCC01B022875D8686A8007F7D417
:101D90002078400760D5E8690027C00008D4E869CA
:101DA00040F08050E861E869012700F08050009021
:101DB0005C480168C90513D40168834641F4807109
:101DC0000160FFF7B3FC824606E000BFFFF7AEFC00
:101DD000A0EB0A0064284ED8DBF80000C005F5D55A
:101DE000E06801280AD008B1052813D0286A20F03D
:101DF00001002862286A20F0040002E0286A40F00E
:101E000001002862E06841F2883B98B1FFF78EFC40
:101E100082460BE0286A40F004002862EEE700BF2B
:101E2000FFF784FCA0EB0A0159455AD8286A8007BD
:101E3000F6D50CE0FFF77AFC824605E0FFF776FC6A
:101E4000A0EB0A0159454CD8286A8007F6D41FB187
:101E5000E86920F08050E861E06988B36968C1F3FF
:101E60008101022944D00228C6F8608004D0FFF71F
:101E70005DFC044638E034E0FFF758FC074604E018
:101E8000FFF754FCC01B02282BD828688001F7D428
:101E9000206AB0F5803F05D16868A16820F4003061
:101EA00008436860D4E908010843696821F47411A3
:101EB00008436860C6F86090FFF738FC044606E007
:101EC00025E000BFFFF732FC001B022809D8286874
:101ED0008001F7D51BE000BFFFF728FC001B02289C
:101EE00002D90320BDE8F88F28688001F4D40EE001
:101EF0000128F7D06868226A00F48031914204D149
:101F0000616A00F47010884201D00120EAE70020E5
:101F1000E8E7000000100240000042428004424214
:101F2000380000200070004010B5401EB0F1807FE6
:101F300001D3012010BD4FF0E02460610F21601734
:101F400001F037FE0020A06107202061002010BDB5
:101F50007047704770B590F83C20012A2CD00124BE
:101F600080F83C40022280F83D2003685A689D6852
:101F700022F070060A6832435A60104B02689A4297
:101F80000ED00F4B9A420BD0B2F1804F08D00D4BC0
:101F90009A4205D00C4B9A4202D00C4B9A4204D183
:101FA000496825F080031943916080F83D40002185
:101FB00080F83C10084670BD022070BD002C014026
:101FC000003401400004004000080040000C0040C4
:101FD00010B5040003D094F83D0010B107E00120D3
:101FE00010BD002084F83C00204600F01FF80220BD
:101FF00084F83D00211D206801F094FB012084F845
:10200000460084F83E0084F83F0084F8400084F8DD
:10201000410084F8420084F8430084F8440084F8C6
:10202000450084F83D00002010BD000008B5154AA9
:102030000168154891420ED1C16941F01001C1619A
:10204000C069002200F01000009011463620FFF712
:10205000CDFC362010E00D4A914211D1C16941F00A
:102060002001C161C069002200F020000090012120
:102070003720FFF7BBFC3720BDE80840FFF7A8BCBE
:1020800008BD000000100040001002400014004095
:1020900090F83D10012901D001207047022180F8FD
:1020A0003D100168CA6842F00102CA6000680E492A
:1020B00088420ED00D4988420BD0B0F1804F08D035
:1020C0000B49884205D00B49884202D00A49884210
:1020D00004D1816801F00701062903D0016841F0AD
:1020E0000101016000207047002C014000340140D4
:1020F0000004004000080040000C00402DE9F041C1
:102100000D46040003D094F83D0018B108E001200A
:10211000BDE8F081002084F83C00204600F040F843
:10212000022084F83D002068816844F20702914350
:102130008160211D206801F0F5FA2268906891699C
:10214000166A2B68AF69034340F20330814341EACA
:102150000721A868EF6908434FF6FC418843E96806
:1021600040EA0720014328692F6A000140EA07304E
:10217000084369686D6926F0220646EA0515294379
:1021800093602268906154F8460B0162012004F8C4
:102190001F09E0752076E0762077A0750020B7E76C
:1021A00070B586B0002500950195029503950068ED
:1021B00052490124524A534EB0F1804F24D0524D1F
:1021C000C023A84258D1C86940F00400C861C8695A
:1021D00000F004000490886940F008008861886974
:1021E000694600F008000490029400933046FFF71F
:1021F0009BF9002211461E20FFF7F8FB5FF01E003E
:10220000FFF7E6FB06B070BDC86940F00100C86189
:10221000C86900F001000490886940F004008861FA
:10222000886900F004000490886940F00800886123
:102230008869694600F0080004904FF4004000905F
:1022400002941046FFF770F90820CDE900056946B1
:1022500002943046FFF768F92C48416821F4407138
:1022600041F0E06141F480714160002211461C2080
:10227000FFF7BCFB1C20C3E7254DA8421DD1C86950
:1022800040F00800C861C86900F00800049088693F
:1022900040F0040088618869694600F004000490F9
:1022A0000320009002941046FFF73EF900221146E9
:1022B0003220FFF79BFB3220A2E7164A9042A1D1C1
:1022C000886940F400508861886900F400500490E7
:1022D000886940F0100088618869694600F0100044
:1022E0000490029400930C48FFF71EF90022114657
:1022F0002B20FFF77BFB2B2082E700000010024021
:1023000000080140000C01400008004000000140AE
:10231000000C0040003401400010014070B590F8FE
:102320003E60044690F83F5090F8423090F84320C9
:10233000022021B104290ED0012E1BD114E0012E60
:1023400018D1012B16D184F83E0084F842000122F6
:102350000021206820E0012D0CD1012A0AD184F847
:102360003F0084F8430014E0012D03D1012B01D17B
:10237000012A01D0012070BD84F83E0084F83F009E
:1023800084F8420084F8430001220021206801F013
:1023900017FA01220421206801F012FA206801686E
:1023A00041F001010160002070BD70472DE9F0414E
:1023B00004460068C66805694FF00007A90713D5F1
:1023C000B10711D5F91E01610120207720688069CD
:1023D0008007204602D0FFF7E8FF04E000F0AEF8E7
:1023E000204600F053F92777680716D5700714D5F3
:1023F00021686FF00400086102202077206880695E
:1024000010F4407F204602D0FFF7CFFF04E000F039
:1024100095F8204600F03AF92777280715D53007B8
:1024200013D521686FF00800086104202077206828
:10243000C0698007204602D0FFF7B7FF04E000F034
:102440007DF8204600F022F92777E80616D5F00639
:1024500014D521686FF010000861082020772068EB
:10246000C06910F4407F204602D0FFF79EFF04E0D1
:1024700000F064F8204600F009F92777E80708D053
:10248000F00706D021686FF001000861204600F0D7
:1024900059F9280608D5300606D521686FF0800066
:1024A00008612046FFF754FD680608D5700606D57A
:1024B00021686FF040000861204600F011FAA8067C
:1024C0000AD5B00608D521686FF0200008612046C3
:1024D000BDE8F041FFF73DBDBDE8F08100B585B036
:1024E0000021009101910291039100680F498842F7
:1024F0001AD10F48816941F00801816180696946FC
:1025000000F0080004903320009002200190039016
:102510000848FFF709F80848416821F4406141F094
:10252000E06141F40061416005B000BD000400407D
:1025300000100240000C014000000140704770B5DF
:10254000044690F83C0000260D4601280FD00120DB
:1025500084F83C006AB1042A1DD0082A2FD00C2A26
:102560003FD00126002084F83C00304670BD022098
:1025700070BD206801F032F92068816941F00801DE
:1025800081612068816921F004018161206881698D
:102590002A69114311E0206801F050F9206881692F
:1025A00041F4006181612068816921F48061816169
:1025B000206881692A6941EA02218161D2E72068A5
:1025C00001F072F92068C16941F00801C161206819
:1025D000C16921F00401C1612068C1692A69114300
:1025E00011E0206801F094F92068C16941F40061AC
:1025F000C1612068C16921F48061C1612068C1693D
:102600002A6941EA0221C161ACE710B5040003D098
:1026100094F83D0010B107E0012010BD002084F8BF
:102620003C00204600F01EF8022084F83D00211DE9
:10263000206801F077F8012084F8460084F83E0015
:1026400084F83F0084F8400084F8410084F8420098
:1026500084F8430084F8440084F8450084F83D0081
:10266000002010BD08B500680649884208D1064818
:10267000C16941F00201C161C06900F0020000902F
:1026800008BD000000040040001002407047000038
:1026900010B50446022249B104290ED0082913D0EE
:1026A00094F84100012816D0012010BD94F83E0096
:1026B0000128F9D184F83E200FE094F83F0001286A
:1026C000F2D184F83F2008E094F840000128EBD1D3
:1026D00084F8402001E084F841200122206801F0C4
:1026E0006FF813492068134A884201D0904203D101
:1026F000436C43F400434364206888420DD0904209
:102700000BD0B0F1804F08D00B49884205D00B495F
:10271000884202D00A49884204D1816801F0070149
:10272000062903D0016841F001010160002010BDBD
:10273000002C01400034014000040040000800402B
:10274000000C00402DE9F05F594981460068096896
:1027500088427DD1574901200870574C052100253A
:102760002068401C90FBF1F2206001FB1200002861
:102770006DD152480768786A514900B20A68526AB6
:1027800016B2504A13685B6A0FFA83FA4E4BD3F8BD
:1027900000C0DCF824C07D620FFA8CFB09684D6232
:1027A00011684D6219684D6201F012FE01F066FD7C
:1027B0004FF03332454B01F0F7FA0022444B01F061
:1027C000F3FAAA1E01F091FF01F0B4FA80463046F8
:1027D00001F0FEFD01F052FD4FF033323B4B01F0B2
:1027E000E3FA00223A4B01F0DFFAAA1E01F07DFF66
:1027F00001F0A0FA0746504601F0EAFD01F03EFD67
:102800004FF03332314B01F0CFFA0022304B01F060
:10281000CBFAAA1E01F069FF01F08CFA0646584671
:1028200001F0D6FD01F02AFD4FF03332274B01F0C5
:10283000BBFA0022264B01F0B7FAAA1E01F055FFA1
:1028400001F078FAA760C4E90360C4E9005800E029
:1028500022E020680A2190FBF1F201FB1200D8B9B6
:102860001C48216900F0DCFE80461A48E1682038E7
:1028700000F0D6FE07461748A168403800F0D0FEA9
:10288000064614486168603800F0CAFE43463A467E
:10289000314600F08BFD25600F49D9F8000009682A
:1028A000884202D10D4901200870BDE8F09F000068
:1028B000200200201400002018000020B800002092
:1028C000480100209001002068020020333323409B
:1028D0000000264030060020D8010020150000200E
:1028E0007047704770470000F8B5016804460868F3
:1028F000CA684B6910F00F0F4FF0000559D003F074
:10290000010602F49077374365D0C10705D0D105A1
:1029100003D5616C41F001016164410705D5D90718
:1029200003D0616C41F002016164810705D5D907CC
:1029300003D0616C41F004016164010707D502F026
:102940002001314303D0616C41F008016164616C86
:1029500000293AD0800604D5900602D5204601F021
:102960002EF820684069616CC0F38010090700D41C
:1029700060B3204600F0FCFF20684069400621D586
:102980002068143050E8001F21F0400140E8001298
:10299000002AF5D1E06BA8B16D494163E06BFEF709
:1029A00019FD002811D0E06B416B01B0BDE8F0408B
:1029B000084783060FD593060DD52046BDE8F8409D
:1029C00000F0FDBF2046FFF78DFFF8BD2046FFF762
:1029D00089FF6564F8BD266B2023012E7CD1C606D5
:1029E0007AD5D60678D508684868009048694FF0CF
:1029F0000206400640D5E16B086840680004000C00
:102A0000E8D0A28D8242E5D9E085886920282DD0C2
:102A100020680C3050E8001F21F4807140E800125B
:102A2000002AF5D12068143050E8001F21F0010180
:102A300040E80012002AF5D12068143050E8001F49
:102A400021F0400140E80012002AF5D184F842301C
:102A5000256320680C3050E8001F21F0100140E889
:102A60000012002AF5D1E06BFEF790FC6663A08DA2
:102A7000E18D401A81B22AE0A08DE18D401A81B229
:102A8000E08D0028A6D00029A4D022680C3252E89C
:102A9000000F20F4907042E80007002FF5D1206865
:102AA000143050E8002F22F0010240E80027002FE8
:102AB000F5D184F84230256320680C3050E8002FAF
:102AC00022F0100240E80023002BF5D16663204677
:102AD000FFF707FFF8BDFFE705062BD5150629D53B
:102AE00094F841002128F5D1A068B0F5805F01D1AC
:102AF0002069B0B1206A411C2162216800784860D9
:102B0000E08C401E0004000CE084E3D12068C16822
:102B100021F08001C1602068C16841F04001C160BE
:102B2000D8E7206A0088C0F308004860206A801C4B
:102B30002062E5E74006CDD55006CBD5CA682046D1
:102B400022F04002CA6084F8413000F0A8F9C1E7E1
:102B50006139000870B5040004D094F841000025E4
:102B600010B106E0012070BD84F84050204600F00E
:102B700023F8242084F841002068C16821F4005122
:102B8000C160204600F07CFF2068016921F490417B
:102B900001612068416921F02A0141612068C16812
:102BA00041F40051C1606564202084F8410084F83C
:102BB00042006563002070BDF0B585B0002400942C
:102BC0000194029403945C4DD0F800C05B4802214C
:102BD00003225B4B0426AC4528D1C56945F480151A
:102BE000C561C56905F480150495856945F0100532
:102BF0008561856905F010050495856945F0200516
:102C000085618069039200F020000490C802CDE93C
:102C1000000169461846FEF787FCCDE90064694665
:102C200048480294FEF780FC05B0F0BD474DDFF840
:102C300018E12F15F44525D1836943F4804383615E
:102C4000836903F480430493836943F0040383613D
:102C50008069039200F0040004906815CDE900013A
:102C600069462846FEF760FCCDE9007469462846AF
:102C70000294FEF759FC002211462520FEF7B6FE0D
:102C8000252028E0DFF8C8E0F44527D1C36943F4E4
:102C90000033C361C36903F400330493836943F0D1
:102CA000040383618069CDE9006100F00400CDE98F
:102CB000032069462846FEF737FC0820CDE90004CA
:102CC000694628460294FEF72FFC00221146262072
:102CD000FEF78CFE2620FEF77BFEA5E71D4DAC45DA
:102CE000A2D1C56945F48025C561C56905F4802573
:102CF0000495856945F0100585618069CDE900710D
:102D000000F01000CDE9032069461D461846FEF785
:102D10000BFC4FF40060CDE900046946284602949C
:102D2000FEF702FC0C48416821F0300141F0E061FF
:102D300041F01001416077E7005000400010024070
:102D4000001001400014014000380140000801401B
:102D500000440040004800400000014090F842302C
:102D6000202B01D00220704721B11AB10023036348
:102D700000F0E2BE0120704770B531490025314CAA
:102D800088421FD16278582A00D1A5602E49A068D8
:102D90000A54401CA0600A78582A0ED14978592953
:102DA0000BD1052809DD29A0FDF73EFA2089264927
:102DB00082B2234800F05AF8A56022490122491C3A
:102DC0001F4819E0244988422FD12178552900D184
:102DD00065802248628881546188491C61806188CD
:102DE0000B2906D30178552902D14178532907D000
:102DF0006580144918480122BDE87040FFF7AEBF56
:102E00004FF400416180C179807940EA012001F0EE
:102E100023F96FF00E0201F068FC0022104B01F064
:102E20002FF900F087FFE060E3E70E4A01219042AE
:102E300001D1A18070BD0C4A9042FBD1E18070BDF0
:102E4000F802002004000020D00400200A67657406
:102E5000646174610A00000040030020D003002078
:102E60000080664088030020B002002090F84130C6
:102E7000202B01D00220704779B172B101628284A7
:102E8000C28400214164212180F841100068C1689A
:102E900041F08001C16000207047012070477047F9
:102EA000FEE700000D4810B50B490160102141609C
:102EB00000218160C16001614161017641768176C6
:102EC000C17601774177FEF791F9002803D0BDE87C
:102ED0001040FEF789B910BD006400403C0000209E
:102EE00030B585B0002000900190029003902A48F0
:102EF000816941F010018161816901F01001049143
:102F0000816941F020018161816901F02001049112
:102F1000816941F004018161816901F0040104913A
:102F2000816941F00801816180691C4D00F0080051
:102F30000490012240F215112846FEF7F1FB002211
:102F400040F22A212846FEF7EBFB4FF460400324B1
:102F5000CDE9000469462846FEF7E6FA40F23F3024
:102F60000121CDE900010220CDE902106946284681
:102F7000FEF7DAFA41F6F010CDE900046946084898
:102F8000FEF7D2FA4FF20400CDE900046946054885
:102F9000FEF7CAFA05B030BD001002400010014033
:102FA00000080140000C01400D4810B50B490160BC
:102FB0000C49416000214FF480428160C0E9031256
:102FC00041618161C1610162FEF7B6FB002803D057
:102FD000BDE81040FEF708B910BD000000580040E1
:102FE00064000020A086010010B58CB02421684642
:102FF000FDF75AF90024164809944FF080410A94CD
:10300000C0E900144FF6FF71C0E902410461846118
:103010000320CDE900040120CDE90204062104913A
:10302000CDE90540CDE9074169460948FFF766F853
:1030300008B1FEF7D9F8099409A905480A94FEF7E2
:1030400089FF002801D0FEF7CFF80CB010BD0000BA
:10305000B800002010B58AB0002407941C216846EF
:103060000894FDF721F92248204901604721C0E971
:1030700001146321C0E9031480218161FFF7C5FABF
:1030800008B1FEF7B1F8079407A919480894FEF7AC
:1030900061FF08B1FEF7A8F86020CDE900040294B2
:1030A0000022694612480494FFF749FA08B1FEF776
:1030B0009BF8042269460E48FFF741FA08B1FEF773
:1030C00093F8082269460A48FFF739FA08B1FEF773
:1030D0008BF80C2269460648FFF731FA08B1FEF773
:1030E00083F80348FFF7FAF90AB010BD0004004066
:1030F0000001002010B58CB024216846FDF7D4F8FB
:1031000000241648099414490A94C0E900144FF6A3
:10311000FF71C0E90241046184610320CDE900042C
:103120000120CDE9020406210491CDE90540CDE955
:10313000074169460948FEF7E1FF08B1FEF754F878
:10314000099409A905480A94FEF704FF002801D054
:10315000FEF74AF80CB010BD0008004048010020FE
:1031600010B58CB024216846FDF79EF8002416485F
:10317000099414490A94C0E900144FF6FF71C0E99C
:103180000241046184610320CDE900040120CDE9FE
:10319000020406210491CDE90540CDE907416946C5
:1031A0000948FEF7ABFF08B1FEF71EF8099409A91C
:1031B00005480A94FEF7CEFE002801D0FEF714F869
:1031C0000CB010BD000C0040900100201CB5002484
:1031D0000E4800940C49019401604721C0E9011494
:1031E0006321C16080218161FEF7F2FE08B1FDF725
:1031F000FBFF0094694605480194FEF7ABFE0028EA
:1032000001D0FDF7F1FF1CBD00100040D8010020E7
:103210001CB500240F4800940D490194016040F250
:103220009F51C0E901146321C16080218161FEF7D3
:10323000CFFE08B1FDF7D8FF009469460548019418
:10324000FEF788FE002801D0FDF7CEFF1CBD000070
:10325000001400402002002010B58CB024216846E4
:10326000FDF722F800241748099415490A94C0E98B
:1032700000144FF6FF71C0E90241046144618461AA
:103280000320CDE900040120CDE9020406210491C8
:10329000CDE90540CDE9074169460A48FEF72EFF12
:1032A00008B1FDF7A1FF099409A906480A94FEF7A1
:1032B00051FE002801D0FDF797FF0CB010BD0000B3
:1032C00000340140680200200C4810B50A49016032
:1032D0004FF4E1314160002181600C22C160C0E9FE
:1032E00004128161C161FFF735FC002803D0BDE8FD
:1032F0001040FDF779BF10BD00500040B002002023
:103300000C4810B50A4901604FF416514160002184
:1033100081600C22C160C0E904128161C161FFF7C4
:1033200019FC002803D0BDE81040FDF75DBF10BDBB
:1033300000380140F80200200C4810B50A4901602D
:103340004FF4E1314160002181600C22C160C0E98D
:1033500004128161C161FFF7FDFB002803D0BDE8C5
:103360001040FDF741BF10BD004400404003002065
:103370000C4810B50A4901604FF4E1314160002169
:1033800081600C22C160C0E904128161C161FFF754
:10339000E1FB002803D0BDE81040FDF725BF10BDBC
:1033A0000048004088030020FEE700002DE9F05FA0
:1033B00006465648564F574C574D9A4693468846B0
:1033C0004FF00009864206DD012211462046FEF735
:1033D000A7F9002207E0BE420FD9002201212046B2
:1033E000FEF79EF9012202212046FEF799F93046A8
:1033F00000F0D2FF00F084FC0AE0012211462046D2
:10340000FEF78EF9012202212046FEF789F948468F
:10341000296848633D4EB04506DD0122042120465F
:10342000FEF77EF9002207E0B8450FD900220421FB
:103430002046FEF775F9012208212046FEF770F9B3
:10344000404600F0A9FF00F05BFC0AE001220421E5
:103450002046FEF765F9012208212046FEF760F9B3
:10346000484629688863B34506DD012210212046BD
:10347000FEF756F9002207E0BB450FD900221021C4
:103480002046FEF74DF9012220212046FEF748F99B
:10349000584600F081FF00F033FC0AE001221021C1
:1034A0002046FEF73DF9012220212046FEF738F99B
:1034B00048462968C8634FF480714FF40078B245DC
:1034C00005DD01222046FEF72BF9002206E0BA4571
:1034D0000ED900222046FEF723F90122414620465C
:1034E000FEF71EF9504600F057FF00F009FC09E016
:1034F00001222046FEF714F9012241462046FEF73C
:103500000FF9484629680864BDE8F09F0000A04014
:103510000000A0C000100140000100202DE9F04192
:103520003C212448FEF7FAFE224C2068C16841F095
:103530000101C1603C212048FEF7F0FE1E4D2868C5
:10354000C16841F00101C1603C211C48FEF7E6FE64
:103550001A4E3068C16841F00101C1603C21184831
:10356000FEF7DCFE164F3868C16841F00101C1600A
:103570001448FEF78DFD00211348FFF789F8042158
:103580001148FFF785F808210F48FFF781F80C2153
:103590000D48FFF77DF8216842F2107048622968F3
:1035A00048623168486239684862BDE8F04100F01D
:1035B0000FB80000B8000020480100209001002052
:1035C000680200202002002000010020FEE7000029
:1035D00012490020486008608860C860086148613E
:1035E0008861C8612031486008608860C8600861EF
:1035F00048618861C8612031486008608860C8609F
:10360000086148618861C86120314860086088604D
:10361000C860086148618861C8617047D0050020B2
:103620002DE9F0410446006800F0B6FF0546A060B1
:103630002946206900F04EFE206107462846E168D1
:1036400000F0AAFFE16900F0DBFE06463946A069FA
:1036500000F0D6FE07462946606900F0D1FE3946E3
:1036600000F038FE314600F035FEE5606060BDE8F0
:10367000F08170477047FEF753B930B58FB02821FD
:103680006846FCF711FE14210AA8FCF70DFE012183
:103690000804CDE900100024029402250491CDE92C
:1036A00007504FF4E01009906846FEF7ADFA08B1F4
:1036B00072B6FEE70F20CDE90A054FF48060CDE930
:1036C0000C4002210AA80E94FEF7C2F9002801D08E
:1036D00072B6FEE70FB030BD704700000148FEF73C
:1036E00065BE0000B80000200148FEF75FBE000084
:1036F000480100200148FEF759BE0000900100205B
:103700000148FEF753BE0000D80100200148FEF733
:103710004DBE0000200200200148FEF747BE000019
:1037200068020020F0B50268204C214D214E224F46
:10373000224B4FF0804CA04209D0984207D0604500
:1037400005D0A84203D0B04201D0B84204D122F043
:10375000700E4A6842EA0E02A04209D0984207D091
:10376000604505D0A84203D0B04201D0B84203D191
:1037700022F44075CA682A434D6922F080022A4328
:1037800002608A68C2620A688262A04201D09842DE
:1037900001D109690163012141610169C90703D0B0
:1037A000016921F001010161F0BD0000002C014020
:1037B0000004004000080040000C004000340140BC
:1037C00010B501F01F030121046A99408C43046283
:1037D000016A9A401143016210BD0000F0B5036A0E
:1037E000026A22F00102026242688469124E24F0E9
:1037F00073050C682C4323F002058B682B430D4D99
:10380000A84201D0B04205D123F00807CB683B4362
:1038100023F00403A84201D0B04205D14D6922F43F
:10382000407215438A692A43426084614968416352
:103830000362F0BD002C014000340140F0B5026A83
:10384000036A23F010030362436884690D6824F45B
:10385000E64444EA05248D6822F0200242EA05127B
:103860000F4D104EA84201D0B04206D1CF6822F0D1
:10387000800242EA071222F04002A84201D0B04280
:1038800007D14D6923F4406343EA85038D6943EA18
:10389000850343608461496881630262F0BD000072
:1038A000002C014000340140F0B5026A036A23F4A1
:1038B000807303624368C46922F4007224F07305C4
:1038C0000C68124E2C438D6842EA05220E4DA84228
:1038D00001D0B04206D1CF6822F4006242EA07224A
:1038E00022F48062A84201D0B04207D14D6923F48E
:1038F000405343EA05138D6943EA05134360C461ED
:103900004968C1630262F0BD002C014000340140EF
:1039100030B5046A026A22F4805202624268C369C6
:103920000D6823F4E64343EA05238D6824F400542C
:1039300044EA0534084DA84202D0084DA84204D1FB
:103940004D6922F4804242EA85124260C3614968AF
:103950000164046230BD0000002C014000340140CD
:1039600010B5406A0021C185C184FEF7BBFF10BDC0
:1039700001680C3151E8002F22F4907241E80023D5
:10398000002BF5D10168143151E8002F22F001021B
:1039900041E80023002BF5D1016B012909D1016811
:1039A0000C3151E8002F22F0100241E80023002BD7
:1039B000F5D1202180F8421000210163704708B53D
:1039C00090F84210222901D0022008BD82684FF4ED
:1039D00080539A4201D1016921B1816A9A421BD078
:1039E0004AB10AE00268816A5268C2F308020A809A
:1039F000816A891C08E0026972B10268526802F0AB
:103A00007F020A70816A491C8162C18D491E0904C6
:103A1000090CC18503D01BE002685268F1E7016818
:103A2000CA6822F02002CA600168CA6822F4807263
:103A3000CA6001684A6922F001024A61202180F8C7
:103A4000421000214163026B012A03D0FFF794F971
:103A5000002008BD016301680C3151E8002F22F0FD
:103A6000100241E80023002BF5D101680A68D20654
:103A700002D50A6849680091818DFEF732FFE7E7B9
:103A800070B5044600680169E26821F440511143B1
:103A900001612169A0680843616908432168CA6817
:103AA00041F20C639A430243CA6020684169A269EB
:103AB00021F44071114341611E492068884202D1BE
:103AC000FEF76CF801E0FEF759F800EBC00101EBDE
:103AD0000012606864218000B2FBF0F3B3FBF1F3E5
:103AE0006FF018067343B2FBF0F5B2FBF0F605EB8E
:103AF0008305322303EB0515B5FBF1F5B6FBF1F6B3
:103B000005F0F00505EB0615B2FBF0F6B2FBF0F0A0
:103B1000B0FBF1F06FF01802504306EB800003EBAE
:103B20000010B0FBF1F0216800F00F00284488601D
:103B300070BD00000038014081628285C28500218D
:103B40004164222180F84210016921B10168CA68EC
:103B500042F48072CA6001684A6942F001024A6117
:103B60000068C16841F02001C1600020704700007A
:103B70000148FEF7B9BE0000F80200200148FEF738
:103B8000B3BE000040030020FEE7490050EAC12018
:103B900018BF04204A0D18BF40F0010040F2FF7228
:103BA000B2EB515F08BF40F00200012808BF0520BA
:103BB00070470907090E002804DB00F1E02080F8B7
:103BC0000014704700F00F0000F1E02080F8141D91
:103BD0007047704704490A685206FCD5024AC1B2D0
:103BE000121D11607047000000380140FDF7A0FE73
:103BF000FFF743FDFFF774F9FFF782FBFFF79CFB2C
:103C0000FFF7F2F9FFF726FAFFF774FAFFF7A8FAC1
:103C1000FFF722FBFFF7FCFAFFF744F9FFF7C4F9BF
:103C2000FFF7D4FAFFF750FBFFF7A2FB012221496F
:103C30002148FFF793F8012220492148FFF78EF829
:103C4000012220492048FFF789F801221F49204816
:103C5000FFF784F8FFF762FC1E4EDFF87CA0DFF868
:103C60007CB01F4F1F4CDFF88090DFF8808000256C
:103C70003246334651465846FFF798FB38880004D1
:103C800000D53D802078012809D1D9F8000000F046
:103C9000F5FA02460B4616A0FCF7C6FA257098F80E
:103CA00000104046012900D105704FF47A70FDF7ED
:103CB00029FCDDE705000020F802002004000020B8
:103CC0004003002016000020880300201700002079
:103CD000B0020020000048C20000A0C2000082C262
:103CE0000600002014000020200000201500002005
:103CF0007370656564313A20256620200D0A000046
:103D0000002800DA4042704710B500290AD0087830
:103D1000002807D005487844FCF75CFE002801D055
:103D2000002010BD0248784410BD00003E0B00008A
:103D3000360B000021F00042A2F16052B2F5801F64
:103D400001F0004328BFD2F17F6C0BD95FEA001C61
:103D500043EAC20242EB507018BF704728BF20F000
:103D600001007047B2F5801FBCBF184670474FEA8C
:103D7000410C1CF5001F02D2084600F008BC70B5CB
:103D800000F028FA00000089FFF7F6BF4FF000406E
:103D9000A0F580007047000002494FF0000000F0DD
:103DA00072BC00BF0000F87F2DE9C04130B4DFF8DD
:103DB000A0C23CEA111418BF3CEA131400F0EC80D6
:103DC00081EA03051CEA111444EAD57418BF1CEA01
:103DD000131500F0C780A4EB05044FF0004545EA39
:103DE000C12145EAC32341EA505143EA525304F149
:103DF0007F74994204F500344FEAC0204FEAC22292
:103E000008BF904200F09C804FEA13650FF2401605
:103E1000765D4FEA134506FB05F7C7F1807706FB91
:103E200007F74FEAD737A7FB03687642C8F5803813
:103E3000A7FB06CE38BFA8F1010807FB08E64FF044
:103E4000000EA6FB028CE6FB03CEDCF1000CCEF1EB
:103E5000004E38BFAEF1010EA6FB0C584FF0000724
:103E60004FF00005E6FB0E87A1FB08C6A0FB07CEBE
:103E700016EB0E0645F10005E1FB076515F1E04E76
:103E80007EBFA4F580345FEA46066D4116F18007D7
:103E900045F100054FEA17274FEA066647EA05672E
:103EA000A6F1DE46B6F1805F4FEA15251FD93846E8
:103EB00024F0010C05EBC471BCF1FE6F01EB0C1199
:103EC00002D8F0BCBDE8008124425CBF01F5801E31
:103ED0009EEAC47F02D4F0BCBDE80081244238D4FD
:103EE000F0BCA1F1C041BDE8004100F0C1B94FEA0A
:103EF000D22242EA43524FEAD323A7FB02864FEA7B
:103F0000D02040EA415007FB03661EEA0E0F4FEA3D
:103F1000D12105FB026658BFA6EB0056B6EB005652
:103F20004FEA520E4EEAC37E18EB0E0E56EB530EBE
:103F3000BDD518EB02085E417F1C55F10005B6E7C0
:103F40004FF480154FF000074FF000064FF00008C7
:103F5000ADE7F0BC4FF0000001F1C04101F00041BD
:103F6000BDE8008111EA0C1F0CEA131500D00CE02B
:103F700013EA0C1F00F025804FF00000F0BC81EA2E
:103F8000030101F00041BDE80081F0BCBDE8004143
:103F900081EA030100F06CB9F0BCBDE8004170B5E6
:103FA00000F018F9097EFC3E00F007B881EA030131
:103FB0004FF0000001F00041704781EA030100F07A
:103FC00057B9F0BCBDE800414FF0000021497047EF
:103FD000FFFDFBF9F7F5F4F2F0EEEDEBE9E8E6E4CE
:103FE000E3E1E0DEDDDBDAD8D7D5D4D3D1D0CFCD55
:103FF000CCCBCAC8C7C6C5C4C2C1C0BFBEBDBCBB8E
:10400000BAB9B8B7B6B5B4B3B2B1B0AFAEADACAB88
:10401000AAA9A8A8A7A6A5A4A3A3A2A1A09F9F9E62
:104020009D9C9C9B9A999998979796959594939314
:10403000929191908F8F8E8E8D8C8C8B8B8A8989AB
:10404000888887878685858484838382828181802E
:104050000000FF070000F87FB0FA80F310FA03F1C8
:104060000AD0C3F11D0303F580634FEA41504FEAC4
:10407000035202EBD12170474FF00000704700005F
:10408000DFF848C170B51CEA111E1EBF1CEA1315EB
:104090009EEA0C0F95EA0C0F00F06F8081EA030492
:1040A00023EA4C134EEAD47E21EA4C1141F48011EC
:1040B00043F48013AE44A1FB024CA0FB0365AEF1B8
:1040C0007F7E361955EB0C05A1FB034C4CF1000328
:1040D000A0FB021C16EB0C06654153F100030942DC
:1040E00018BF46F0010613F4007F0BD14FEA0331ED
:1040F0004FEA0530340341EA155140EA16506FF09B
:1041000003020AE04FEAC3214FEAC520F40241EA64
:10411000555140EA56506FF0020202EB2E4201EB7D
:10412000025585EACE710AD05FEA440C18BF24F02C
:10413000004450F1000041F1000120EAD47040F247
:10414000FE7C624500D270BDA84214BF4FF080448F
:104150004FF04044002E08BF0024BEF1806FA8BF7E
:10416000A1F1C041BDE8704080F282804FF00000B4
:1041700001F1C04101F0004170479EEA0C0F0CEACA
:10418000131518BF95EA0C0F06D04FF0000081EA16
:10419000030E0EF0004170BD00F01CF88900013ED6
:1041A00000F007B800F009B84FEA430C5FEA5C5C26
:1041B00008D081EA030100F05BB84FEA410C5FEAE6
:1041C0005C5CF6D14FF00000014970470000FF072A
:1041D0000000F87F0EF1020E2EF0030E5EF8046B65
:1041E000364205D4012A43EB030515F5001F12D80A
:1041F000012841EB010C1CF5001F0CD80ED14FEA31
:10420000D17C15F5001F0CEB4C0C0CF1020C08BF17
:104210004CEBD37C04E04FF0080C01E04FEAD37C78
:104220000CEB4C0526FA05F606F00706B6F1040C71
:1042300006D20EEB860CBDE870404CF0010C6047D6
:10424000DFE80CF0090B02024FF000414FF00000D4
:10425000A1F5002170BD19461046012851EB01045B
:1042600018BFD4F5001484BF002001F0004170BDD8
:104270000808A0F500114FEA3101704743004FEAEA
:10428000D30C4FEA3C0C43401FBF40070CF1605178
:1042900013F0FE4F70471CF0006F03D100200CF0AC
:1042A000004170470CF0004343EA507010B540EAFB
:1042B000CC0000F026F900BF000000924FEA000198
:1042C000FFF7D6BF4FF000414FF00000A1F50021ED
:1042D0007047000090EA010F48BF81F0004100F1F3
:1042E0006281421A3CBF801A89184FEAD0524FF0BF
:1042F0007F4C1CEA410FA2EBD15318BF9CEA026F1E
:1043000000F03B804FF0004C4CEA00204CEA0121C9
:1043100021FA03FC10EB0C0C1ED202F1FF325FEA13
:104320001C2040EBC25038BF70471CF07F0F4FEA93
:10433000400C18BFBCF17F4F38BF7047C3F120035A
:10434000994008BF20F00100BCF17F4F38BF704793
:10435000A0F1C04000F01BB94FEA3C00000A40EB5E
:10436000C25028BF1CF0FF0F4FEA400CE6D018BF28
:10437000BCF17F4F38BF7047EAE79CEA026F05D077
:1043800010EA5C0F08BF00F00040704710B500F065
:10439000B8F800BF64FBBE3E41000B0ED3F19E0295
:1043A00008D950F400034FEA032323FA02F048BF70
:1043B0004042704710B500F0A4F800BF4992248035
:1043C000002070476FF0004282EA20007047000032
:1043D00010F0004148BF4042B0FA80F310FA03F2F7
:1043E000C3F19D030BD051EAC35101EB12205306D8
:1043F00038BF704700F1010008BF20F0010070478E
:104400004FF47F0C1CEAD0121EBF1CEAD11392EAB3
:104410000C0F93EA0C0F00F0478090EA010F48BFA1
:1044200042F480724FF0004C4CEA00204CEA01212B
:1044300002EB0302A0FB0113A2F50002002918BF42
:1044400043F001035B0028BF4FEA330342EB2242F3
:104450005FEA132C4CEBC2502EBFBCEB436FB2F59E
:104460007C0F70474FEA036CBCF1004F08BF20F08F
:104470000100B2F57C0F38BF70470BD582F0FF0208
:1044800012F5803FC8BF704700F1C040D8BF00F0B0
:104490000040704700F5000C5FEA4C0C48BF7047C5
:1044A000B0F1C04000F073B890EA010F0CEAD113EC
:1044B00048BF42F48072624538BF634504D280EA47
:1044C000010000F00040704710B500F01AF800BF7E
:1044D0008900013E00F007B800F009B85FEA410C1E
:1044E0005FEA1C6C08D080EA010000F050B85FEA77
:1044F000400C5FEA1C6CF6D14FF00040A0F5800044
:1045000070470EF1020E2EF0030E5EF8044B2442AB
:1045100004D44FEA4102B2F17F4F11D84FEA400371
:10452000B3F17F4F0CD80ED14FEAD07CB2F17F4F60
:104530000CEB4C0C0CF1020C08BF4CEBD17C04E0F2
:104540004FF0080C01E04FEAD17C0CEB4C0324FA4D
:1045500003F404F00704B4F1040C06D20EEB840C4F
:10456000BDE810404CF0010C6047DFE80CF0070894
:1045700002024FF00040A0F5800010BD0846420046
:1045800018BFD2F1807288BF00F0004010BDFF213B
:1045900041EAD050C005704790EA010F48BF81F052
:1045A00000413FF59EAE421A04D882F00042A0EBD3
:1045B000020011444FEAD0524FF07F4C1CEA410FE9
:1045C000A2EBD15318BF9CEA026F4AD04FF0004CC7
:1045D0004CEA00204CEA012121FA03FCB0EB0C0C60
:1045E0000FD412F0FE0F36D05FEA4C001DD500123A
:1045F00040EBC25038BF70471CF03F0F18BF7047E8
:104600000BE0A2F101025FEA1C2040EBC25038BF70
:1046100070471CF07F0F18BF7047C3F1200399400B
:1046200014BF401E20F00100704780084FEA12239B
:1046300008BF7047B0FA80FCA2EB0C02CCF1280C4A
:1046400060FA0CF093EA122F04BF00EBC2507047DF
:104650004FEAC3707047130A5FEADC1008BF704767
:10466000F6E79CEA026F04D010EA5C0F08BF002056
:10467000704710B5FFF745FF40DFF63E81F0004080
:104680007047FBF715BF0CF00F03092B08BF08207C
:1046900000F059800A2B0BD0082B18BF704708BFB9
:1046A0001CF0400F0AD04FF000004FF0000170479F
:1046B0001CF0400F18BF4FF0004070471CF0100F67
:1046C00008D020F0704300F07F4242EAD3014FEA65
:1046D0004370704700F0604021F07F4242EA0002E0
:1046E00001F07F4040EA727070474FF0FF0C4CF4CD
:1046F000E06C1CEA11531CBF9CEA030C9445C2BF3A
:10470000DA4201EB02517047002B0DD0BCF1000FD3
:104710000FD0002A01F00041A4BF41F0E04141F078
:104720007F614FF00000704701F000414FF0000042
:10473000704750EA01334FF09B0C18BF4CF0806C6F
:104740007FF42AAB70471CF4801F11D01CF4E02FBB
:1047500003D06FEACC31490070474FF04050EFF37F
:10476000008222F0704242EA000282F30088704721
:104770004FF0000070470102020304050607080914
:104780000A0B0C0D0E0F10100000000000000000BE
:1047900001020304060708090000000001020304E7
:1047A00002400000000000A00000000005400000E2
:1047B000000000C8000000000C4000000000409C09
:1047C00000000000194000000020BCBE00000000F6
:1047D00034400000BFC91B8E00000004B54000003B
:1047E000504BCFD06607E2CF010000006C410000C3
:1047F0003E8251AADFEEA73401000000D94200003A
:10480000DCB5A0E23A301F97FFFFFFFFB445000080
:10481000FD25A0C8E9A3C14FFFFFFFFFFF3F000038
:104820000000008000000000FF3F0000000000804A
:104830000000000070480008000000203C0000005C
:104840006C010008AC4800083C000020740C00001B
:10485000880100081C00000043000000F8FFFFFF73
:104860000C0000000E0000000F0000002E000000F1
:104870000000000000000000000000000000000038
:104880000000000000000000000000000000000028
:104890000000000000000000000000000100000017
:0C48A000100000000000000000127A0070
:0400000508000131BD
:00000001FF
